{
  "contractName": "SupplyChain",
  "abi": [
    {
      "inputs": [],
      "payable": false,
      "stateMutability": "nonpayable",
      "type": "constructor"
    },
    {
      "constant": true,
      "inputs": [
        {
          "internalType": "uint256",
          "name": "",
          "type": "uint256"
        }
      ],
      "name": "DIS",
      "outputs": [
        {
          "internalType": "address",
          "name": "addr",
          "type": "address"
        },
        {
          "internalType": "uint256",
          "name": "id",
          "type": "uint256"
        },
        {
          "internalType": "string",
          "name": "name",
          "type": "string"
        },
        {
          "internalType": "string",
          "name": "place",
          "type": "string"
        }
      ],
      "payable": false,
      "stateMutability": "view",
      "type": "function"
    },
    {
      "constant": true,
      "inputs": [
        {
          "internalType": "uint256",
          "name": "",
          "type": "uint256"
        }
      ],
      "name": "MAN",
      "outputs": [
        {
          "internalType": "address",
          "name": "addr",
          "type": "address"
        },
        {
          "internalType": "uint256",
          "name": "id",
          "type": "uint256"
        },
        {
          "internalType": "string",
          "name": "name",
          "type": "string"
        },
        {
          "internalType": "string",
          "name": "place",
          "type": "string"
        }
      ],
      "payable": false,
      "stateMutability": "view",
      "type": "function"
    },
    {
      "constant": true,
      "inputs": [
        {
          "internalType": "uint256",
          "name": "",
          "type": "uint256"
        }
      ],
      "name": "MedicineStock",
      "outputs": [
        {
          "internalType": "uint256",
          "name": "id",
          "type": "uint256"
        },
        {
          "internalType": "string",
          "name": "name",
          "type": "string"
        },
        {
          "internalType": "string",
          "name": "description",
          "type": "string"
        },
        {
          "internalType": "uint256",
          "name": "RMSid",
          "type": "uint256"
        },
        {
          "internalType": "uint256",
          "name": "MANid",
          "type": "uint256"
        },
        {
          "internalType": "uint256",
          "name": "DISid",
          "type": "uint256"
        },
        {
          "internalType": "uint256",
          "name": "RETid",
          "type": "uint256"
        },
        {
          "internalType": "enum SupplyChain.STAGE",
          "name": "stage",
          "type": "uint8"
        },
        {
          "internalType": "uint256",
          "name": "price",
          "type": "uint256"
        }
      ],
      "payable": false,
      "stateMutability": "view",
      "type": "function"
    },
    {
      "constant": true,
      "inputs": [],
      "name": "Owner",
      "outputs": [
        {
          "internalType": "address",
          "name": "",
          "type": "address"
        }
      ],
      "payable": false,
      "stateMutability": "view",
      "type": "function"
    },
    {
      "constant": true,
      "inputs": [
        {
          "internalType": "uint256",
          "name": "",
          "type": "uint256"
        }
      ],
      "name": "RET",
      "outputs": [
        {
          "internalType": "address",
          "name": "addr",
          "type": "address"
        },
        {
          "internalType": "uint256",
          "name": "id",
          "type": "uint256"
        },
        {
          "internalType": "string",
          "name": "name",
          "type": "string"
        },
        {
          "internalType": "string",
          "name": "place",
          "type": "string"
        }
      ],
      "payable": false,
      "stateMutability": "view",
      "type": "function"
    },
    {
      "constant": true,
      "inputs": [
        {
          "internalType": "uint256",
          "name": "",
          "type": "uint256"
        }
      ],
      "name": "RMS",
      "outputs": [
        {
          "internalType": "address",
          "name": "addr",
          "type": "address"
        },
        {
          "internalType": "uint256",
          "name": "id",
          "type": "uint256"
        },
        {
          "internalType": "string",
          "name": "name",
          "type": "string"
        },
        {
          "internalType": "string",
          "name": "place",
          "type": "string"
        }
      ],
      "payable": false,
      "stateMutability": "view",
      "type": "function"
    },
    {
      "constant": true,
      "inputs": [],
      "name": "disCtr",
      "outputs": [
        {
          "internalType": "uint256",
          "name": "",
          "type": "uint256"
        }
      ],
      "payable": false,
      "stateMutability": "view",
      "type": "function"
    },
    {
      "constant": true,
      "inputs": [],
      "name": "manCtr",
      "outputs": [
        {
          "internalType": "uint256",
          "name": "",
          "type": "uint256"
        }
      ],
      "payable": false,
      "stateMutability": "view",
      "type": "function"
    },
    {
      "constant": true,
      "inputs": [],
      "name": "medicineCtr",
      "outputs": [
        {
          "internalType": "uint256",
          "name": "",
          "type": "uint256"
        }
      ],
      "payable": false,
      "stateMutability": "view",
      "type": "function"
    },
    {
      "constant": true,
      "inputs": [],
      "name": "price",
      "outputs": [
        {
          "internalType": "uint256",
          "name": "",
          "type": "uint256"
        }
      ],
      "payable": false,
      "stateMutability": "view",
      "type": "function"
    },
    {
      "constant": true,
      "inputs": [],
      "name": "price1",
      "outputs": [
        {
          "internalType": "uint256",
          "name": "",
          "type": "uint256"
        }
      ],
      "payable": false,
      "stateMutability": "view",
      "type": "function"
    },
    {
      "constant": true,
      "inputs": [],
      "name": "price2",
      "outputs": [
        {
          "internalType": "uint256",
          "name": "",
          "type": "uint256"
        }
      ],
      "payable": false,
      "stateMutability": "view",
      "type": "function"
    },
    {
      "constant": true,
      "inputs": [],
      "name": "price3",
      "outputs": [
        {
          "internalType": "uint256",
          "name": "",
          "type": "uint256"
        }
      ],
      "payable": false,
      "stateMutability": "view",
      "type": "function"
    },
    {
      "constant": true,
      "inputs": [],
      "name": "price4",
      "outputs": [
        {
          "internalType": "uint256",
          "name": "",
          "type": "uint256"
        }
      ],
      "payable": false,
      "stateMutability": "view",
      "type": "function"
    },
    {
      "constant": true,
      "inputs": [],
      "name": "price5",
      "outputs": [
        {
          "internalType": "uint256",
          "name": "",
          "type": "uint256"
        }
      ],
      "payable": false,
      "stateMutability": "view",
      "type": "function"
    },
    {
      "constant": true,
      "inputs": [],
      "name": "price6",
      "outputs": [
        {
          "internalType": "uint256",
          "name": "",
          "type": "uint256"
        }
      ],
      "payable": false,
      "stateMutability": "view",
      "type": "function"
    },
    {
      "constant": true,
      "inputs": [],
      "name": "retCtr",
      "outputs": [
        {
          "internalType": "uint256",
          "name": "",
          "type": "uint256"
        }
      ],
      "payable": false,
      "stateMutability": "view",
      "type": "function"
    },
    {
      "constant": true,
      "inputs": [],
      "name": "rmsCtr",
      "outputs": [
        {
          "internalType": "uint256",
          "name": "",
          "type": "uint256"
        }
      ],
      "payable": false,
      "stateMutability": "view",
      "type": "function"
    },
    {
      "constant": false,
      "inputs": [
        {
          "internalType": "uint256",
          "name": "_medicineID",
          "type": "uint256"
        },
        {
          "internalType": "uint256",
          "name": "_price",
          "type": "uint256"
        }
      ],
      "name": "setPrice",
      "outputs": [],
      "payable": false,
      "stateMutability": "nonpayable",
      "type": "function"
    },
    {
      "constant": true,
      "inputs": [
        {
          "internalType": "uint256",
          "name": "_medicineID",
          "type": "uint256"
        }
      ],
      "name": "getPrice",
      "outputs": [
        {
          "internalType": "uint256",
          "name": "",
          "type": "uint256"
        }
      ],
      "payable": false,
      "stateMutability": "view",
      "type": "function"
    },
    {
      "constant": true,
      "inputs": [
        {
          "internalType": "uint256",
          "name": "_medicineID",
          "type": "uint256"
        }
      ],
      "name": "showStage",
      "outputs": [
        {
          "internalType": "string",
          "name": "",
          "type": "string"
        }
      ],
      "payable": false,
      "stateMutability": "view",
      "type": "function"
    },
    {
      "constant": true,
      "inputs": [
        {
          "internalType": "uint256",
          "name": "_medicineID",
          "type": "uint256"
        }
      ],
      "name": "showPrice",
      "outputs": [
        {
          "internalType": "uint256",
          "name": "",
          "type": "uint256"
        }
      ],
      "payable": false,
      "stateMutability": "view",
      "type": "function"
    },
    {
      "constant": false,
      "inputs": [
        {
          "internalType": "address",
          "name": "_address",
          "type": "address"
        },
        {
          "internalType": "string",
          "name": "_name",
          "type": "string"
        },
        {
          "internalType": "string",
          "name": "_place",
          "type": "string"
        }
      ],
      "name": "addRMS",
      "outputs": [],
      "payable": false,
      "stateMutability": "nonpayable",
      "type": "function"
    },
    {
      "constant": false,
      "inputs": [
        {
          "internalType": "address",
          "name": "_address",
          "type": "address"
        },
        {
          "internalType": "string",
          "name": "_name",
          "type": "string"
        },
        {
          "internalType": "string",
          "name": "_place",
          "type": "string"
        }
      ],
      "name": "addManufacturer",
      "outputs": [],
      "payable": false,
      "stateMutability": "nonpayable",
      "type": "function"
    },
    {
      "constant": false,
      "inputs": [
        {
          "internalType": "address",
          "name": "_address",
          "type": "address"
        },
        {
          "internalType": "string",
          "name": "_name",
          "type": "string"
        },
        {
          "internalType": "string",
          "name": "_place",
          "type": "string"
        }
      ],
      "name": "addDistributor",
      "outputs": [],
      "payable": false,
      "stateMutability": "nonpayable",
      "type": "function"
    },
    {
      "constant": false,
      "inputs": [
        {
          "internalType": "address",
          "name": "_address",
          "type": "address"
        },
        {
          "internalType": "string",
          "name": "_name",
          "type": "string"
        },
        {
          "internalType": "string",
          "name": "_place",
          "type": "string"
        }
      ],
      "name": "addRetailer",
      "outputs": [],
      "payable": false,
      "stateMutability": "nonpayable",
      "type": "function"
    },
    {
      "constant": false,
      "inputs": [
        {
          "internalType": "uint256",
          "name": "_medicineID",
          "type": "uint256"
        }
      ],
      "name": "RMSsupply",
      "outputs": [],
      "payable": false,
      "stateMutability": "nonpayable",
      "type": "function"
    },
    {
      "constant": false,
      "inputs": [
        {
          "internalType": "uint256",
          "name": "_medicineID",
          "type": "uint256"
        }
      ],
      "name": "Manufacturing",
      "outputs": [],
      "payable": false,
      "stateMutability": "nonpayable",
      "type": "function"
    },
    {
      "constant": false,
      "inputs": [
        {
          "internalType": "uint256",
          "name": "_medicineID",
          "type": "uint256"
        }
      ],
      "name": "Distribute",
      "outputs": [],
      "payable": false,
      "stateMutability": "nonpayable",
      "type": "function"
    },
    {
      "constant": false,
      "inputs": [
        {
          "internalType": "uint256",
          "name": "_medicineID",
          "type": "uint256"
        }
      ],
      "name": "Retail",
      "outputs": [],
      "payable": false,
      "stateMutability": "nonpayable",
      "type": "function"
    },
    {
      "constant": false,
      "inputs": [
        {
          "internalType": "uint256",
          "name": "_medicineID",
          "type": "uint256"
        }
      ],
      "name": "sold",
      "outputs": [],
      "payable": false,
      "stateMutability": "nonpayable",
      "type": "function"
    },
    {
      "constant": false,
      "inputs": [
        {
          "internalType": "string",
          "name": "_name",
          "type": "string"
        },
        {
          "internalType": "string",
          "name": "_description",
          "type": "string"
        }
      ],
      "name": "addMedicine",
      "outputs": [],
      "payable": false,
      "stateMutability": "nonpayable",
      "type": "function"
    }
  ],
  "bytecode": "0x6080604052600060015560006002556000600355600060045560006005556000600655600a6007556014600855601e6009556028600a556032600b55603c600c5534801561004c57600080fd5b50336000806101000a81548173ffffffffffffffffffffffffffffffffffffffff021916908373ffffffffffffffffffffffffffffffffffffffff160217905550612fcc8061009c6000396000f3fe608060405234801561001057600080fd5b50600436106101f05760003560e01c8063865b55481161010f578063cc403069116100a2578063e757223011610071578063e757223014611077578063eb1a06b5146110b9578063eef5cb401461120b578063f7d9757714611358576101f0565b8063cc40306914610e47578063d778c91114610f94578063dd28639814610fb2578063e101a2e014610fd0576101f0565b8063a035b1fe116100de578063a035b1fe14610d93578063a48d335a14610db1578063a95f29d914610ddf578063b4a99a4e14610dfd576101f0565b8063865b554814610bc757806386c1827514610be55780638f4183cc14610c135780639c03facb14610d65576101f0565b80634def474a116101875780636a992c9f116101565780636a992c9f146108a75780636caf25ce14610a195780637e43d94d14610a37578063857ddb0414610a55576101f0565b80634def474a146106cc57806359bf286f146106fa578063641e90de1461084757806364bb057f14610865576101f0565b80632b70b08d116101c35780632b70b08d146104f05780632bdb2e6b146106625780633d753a1c14610680578063438e9c4d146106ae576101f0565b806327378684146101f557806327a3181d146102135780632a4af440146102315780632b0187ac146103a3575b600080fd5b6101fd611390565b6040518082815260200191505060405180910390f35b61021b611396565b6040518082815260200191505060405180910390f35b6103a16004803603606081101561024757600080fd5b81019080803573ffffffffffffffffffffffffffffffffffffffff1690602001909291908035906020019064010000000081111561028457600080fd5b82018360208201111561029657600080fd5b803590602001918460018302840111640100000000831117156102b857600080fd5b91908080601f016020809104026020016040519081016040528093929190818152602001838380828437600081840152601f19601f8201169050808301925050505050505091929192908035906020019064010000000081111561031b57600080fd5b82018360208201111561032d57600080fd5b8035906020019184600183028401116401000000008311171561034f57600080fd5b91908080601f016020809104026020016040519081016040528093929190818152602001838380828437600081840152601f19601f82011690508083019250505050505050919291929050505061139c565b005b6103cf600480360360208110156103b957600080fd5b81019080803590602001909291905050506114e8565b604051808573ffffffffffffffffffffffffffffffffffffffff1673ffffffffffffffffffffffffffffffffffffffff1681526020018481526020018060200180602001838103835285818151815260200191508051906020019080838360005b8381101561044b578082015181840152602081019050610430565b50505050905090810190601f1680156104785780820380516001836020036101000a031916815260200191505b50838103825284818151815260200191508051906020019080838360005b838110156104b1578082015181840152602081019050610496565b50505050905090810190601f1680156104de5780820380516001836020036101000a031916815260200191505b50965050505050505060405180910390f35b6106606004803603606081101561050657600080fd5b81019080803573ffffffffffffffffffffffffffffffffffffffff1690602001909291908035906020019064010000000081111561054357600080fd5b82018360208201111561055557600080fd5b8035906020019184600183028401116401000000008311171561057757600080fd5b91908080601f016020809104026020016040519081016040528093929190818152602001838380828437600081840152601f19601f820116905080830192505050505050509192919290803590602001906401000000008111156105da57600080fd5b8201836020820111156105ec57600080fd5b8035906020019184600183028401116401000000008311171561060e57600080fd5b91908080601f016020809104026020016040519081016040528093929190818152602001838380828437600081840152601f19601f820116905080830192505050505050509192919290505050611668565b005b61066a6117b4565b6040518082815260200191505060405180910390f35b6106ac6004803603602081101561069657600080fd5b81019080803590602001909291905050506117ba565b005b6106b661188c565b6040518082815260200191505060405180910390f35b6106f8600480360360208110156106e257600080fd5b8101908080359060200190929190505050611892565b005b6107266004803603602081101561071057600080fd5b8101908080359060200190929190505050611964565b604051808573ffffffffffffffffffffffffffffffffffffffff1673ffffffffffffffffffffffffffffffffffffffff1681526020018481526020018060200180602001838103835285818151815260200191508051906020019080838360005b838110156107a2578082015181840152602081019050610787565b50505050905090810190601f1680156107cf5780820380516001836020036101000a031916815260200191505b50838103825284818151815260200191508051906020019080838360005b838110156108085780820151818401526020810190506107ed565b50505050905090810190601f1680156108355780820380516001836020036101000a031916815260200191505b50965050505050505060405180910390f35b61084f611ae4565b6040518082815260200191505060405180910390f35b6108916004803603602081101561087b57600080fd5b8101908080359060200190929190505050611aea565b6040518082815260200191505060405180910390f35b610a17600480360360608110156108bd57600080fd5b81019080803573ffffffffffffffffffffffffffffffffffffffff169060200190929190803590602001906401000000008111156108fa57600080fd5b82018360208201111561090c57600080fd5b8035906020019184600183028401116401000000008311171561092e57600080fd5b91908080601f016020809104026020016040519081016040528093929190818152602001838380828437600081840152601f19601f8201169050808301925050505050505091929192908035906020019064010000000081111561099157600080fd5b8201836020820111156109a357600080fd5b803590602001918460018302840111640100000000831117156109c557600080fd5b91908080601f016020809104026020016040519081016040528093929190818152602001838380828437600081840152601f19601f820116905080830192505050505050509192919290505050611cc7565b005b610a21611e13565b6040518082815260200191505060405180910390f35b610a3f611e19565b6040518082815260200191505060405180910390f35b610bc560048036036060811015610a6b57600080fd5b81019080803573ffffffffffffffffffffffffffffffffffffffff16906020019092919080359060200190640100000000811115610aa857600080fd5b820183602082011115610aba57600080fd5b80359060200191846001830284011164010000000083111715610adc57600080fd5b91908080601f016020809104026020016040519081016040528093929190818152602001838380828437600081840152601f19601f82011690508083019250505050505050919291929080359060200190640100000000811115610b3f57600080fd5b820183602082011115610b5157600080fd5b80359060200191846001830284011164010000000083111715610b7357600080fd5b91908080601f016020809104026020016040519081016040528093929190818152602001838380828437600081840152601f19601f820116905080830192505050505050509192919290505050611e1f565b005b610bcf611f6b565b6040518082815260200191505060405180910390f35b610c1160048036036020811015610bfb57600080fd5b8101908080359060200190929190505050611f71565b005b610d6360048036036040811015610c2957600080fd5b8101908080359060200190640100000000811115610c4657600080fd5b820183602082011115610c5857600080fd5b80359060200191846001830284011164010000000083111715610c7a57600080fd5b91908080601f016020809104026020016040519081016040528093929190818152602001838380828437600081840152601f19601f82011690508083019250505050505050919291929080359060200190640100000000811115610cdd57600080fd5b820183602082011115610cef57600080fd5b80359060200191846001830284011164010000000083111715610d1157600080fd5b91908080601f016020809104026020016040519081016040528093929190818152602001838380828437600081840152601f19601f820116905080830192505050505050509192919290505050612043565b005b610d9160048036036020811015610d7b57600080fd5b81019080803590602001909291905050506121f7565b005b610d9b6122d0565b6040518082815260200191505060405180910390f35b610ddd60048036036020811015610dc757600080fd5b81019080803590602001909291905050506122d6565b005b610de76123a8565b6040518082815260200191505060405180910390f35b610e056123ae565b604051808273ffffffffffffffffffffffffffffffffffffffff1673ffffffffffffffffffffffffffffffffffffffff16815260200191505060405180910390f35b610e7360048036036020811015610e5d57600080fd5b81019080803590602001909291905050506123d3565b604051808573ffffffffffffffffffffffffffffffffffffffff1673ffffffffffffffffffffffffffffffffffffffff1681526020018481526020018060200180602001838103835285818151815260200191508051906020019080838360005b83811015610eef578082015181840152602081019050610ed4565b50505050905090810190601f168015610f1c5780820380516001836020036101000a031916815260200191505b50838103825284818151815260200191508051906020019080838360005b83811015610f55578082015181840152602081019050610f3a565b50505050905090810190601f168015610f825780820380516001836020036101000a031916815260200191505b50965050505050505060405180910390f35b610f9c612553565b6040518082815260200191505060405180910390f35b610fba612559565b6040518082815260200191505060405180910390f35b610ffc60048036036020811015610fe657600080fd5b810190808035906020019092919050505061255f565b6040518080602001828103825283818151815260200191508051906020019080838360005b8381101561103c578082015181840152602081019050611021565b50505050905090810190601f1680156110695780820380516001836020036101000a031916815260200191505b509250505060405180910390f35b6110a36004803603602081101561108d57600080fd5b810190808035906020019092919050505061286f565b6040518082815260200191505060405180910390f35b6110e5600480360360208110156110cf57600080fd5b81019080803590602001909291905050506128a9565b604051808a8152602001806020018060200189815260200188815260200187815260200186815260200185600581111561111b57fe5b60ff16815260200184815260200183810383528b818151815260200191508051906020019080838360005b83811015611161578082015181840152602081019050611146565b50505050905090810190601f16801561118e5780820380516001836020036101000a031916815260200191505b5083810382528a818151815260200191508051906020019080838360005b838110156111c75780820151818401526020810190506111ac565b50505050905090810190601f1680156111f45780820380516001836020036101000a031916815260200191505b509b50505050505050505050505060405180910390f35b6112376004803603602081101561122157600080fd5b8101908080359060200190929190505050612a34565b604051808573ffffffffffffffffffffffffffffffffffffffff1673ffffffffffffffffffffffffffffffffffffffff1681526020018481526020018060200180602001838103835285818151815260200191508051906020019080838360005b838110156112b3578082015181840152602081019050611298565b50505050905090810190601f1680156112e05780820380516001836020036101000a031916815260200191505b50838103825284818151815260200191508051906020019080838360005b838110156113195780820151818401526020810190506112fe565b50505050905090810190601f1680156113465780820380516001836020036101000a031916815260200191505b50965050505050505060405180910390f35b61138e6004803603604081101561136e57600080fd5b810190808035906020019092919080359060200190929190505050612bb4565b005b600a5481565b60085481565b6000809054906101000a900473ffffffffffffffffffffffffffffffffffffffff1673ffffffffffffffffffffffffffffffffffffffff163373ffffffffffffffffffffffffffffffffffffffff16146113f557600080fd5b60046000815480929190600101919050555060405180608001604052808473ffffffffffffffffffffffffffffffffffffffff16815260200160045481526020018381526020018281525060106000600454815260200190815260200160002060008201518160000160006101000a81548173ffffffffffffffffffffffffffffffffffffffff021916908373ffffffffffffffffffffffffffffffffffffffff1602179055506020820151816001015560408201518160020190805190602001906114c2929190612ef2565b5060608201518160030190805190602001906114df929190612ef2565b50905050505050565b60106020528060005260406000206000915090508060000160009054906101000a900473ffffffffffffffffffffffffffffffffffffffff1690806001015490806002018054600181600116156101000203166002900480601f0160208091040260200160405190810160405280929190818152602001828054600181600116156101000203166002900480156115c05780601f10611595576101008083540402835291602001916115c0565b820191906000526020600020905b8154815290600101906020018083116115a357829003601f168201915b505050505090806003018054600181600116156101000203166002900480601f01602080910402602001604051908101604052809291908181526020018280546001816001161561010002031660029004801561165e5780601f106116335761010080835404028352916020019161165e565b820191906000526020600020905b81548152906001019060200180831161164157829003601f168201915b5050505050905084565b6000809054906101000a900473ffffffffffffffffffffffffffffffffffffffff1673ffffffffffffffffffffffffffffffffffffffff163373ffffffffffffffffffffffffffffffffffffffff16146116c157600080fd5b60026000815480929190600101919050555060405180608001604052808473ffffffffffffffffffffffffffffffffffffffff168152602001600254815260200183815260200182815250600e6000600254815260200190815260200160002060008201518160000160006101000a81548173ffffffffffffffffffffffffffffffffffffffff021916908373ffffffffffffffffffffffffffffffffffffffff16021790555060208201518160010155604082015181600201908051906020019061178e929190612ef2565b5060608201518160030190805190602001906117ab929190612ef2565b50905050505050565b60045481565b6000811180156117cc57506001548111155b6117d557600080fd5b60006117e033612bee565b9050600081116117ef57600080fd5b600360058111156117fc57fe5b600d600084815260200190815260200160002060070160009054906101000a900460ff16600581111561182b57fe5b1461183557600080fd5b80600d6000848152602001908152602001600020600601819055506004600d600084815260200190815260200160002060070160006101000a81548160ff0219169083600581111561188357fe5b02179055505050565b60035481565b6000811180156118a457506001548111155b6118ad57600080fd5b60006118b833612caf565b9050600081116118c757600080fd5b600260058111156118d457fe5b600d600084815260200190815260200160002060070160009054906101000a900460ff16600581111561190357fe5b1461190d57600080fd5b80600d6000848152602001908152602001600020600501819055506003600d600084815260200190815260200160002060070160006101000a81548160ff0219169083600581111561195b57fe5b02179055505050565b60116020528060005260406000206000915090508060000160009054906101000a900473ffffffffffffffffffffffffffffffffffffffff1690806001015490806002018054600181600116156101000203166002900480601f016020809104026020016040519081016040528092919081815260200182805460018160011615610100020316600290048015611a3c5780601f10611a1157610100808354040283529160200191611a3c565b820191906000526020600020905b815481529060010190602001808311611a1f57829003601f168201915b505050505090806003018054600181600116156101000203166002900480601f016020809104026020016040519081016040528092919081815260200182805460018160011615610100020316600290048015611ada5780601f10611aaf57610100808354040283529160200191611ada565b820191906000526020600020905b815481529060010190602001808311611abd57829003601f168201915b5050505050905084565b600b5481565b60008060015411611afa57600080fd5b60006005811115611b0757fe5b600d600084815260200190815260200160002060070160009054906101000a900460ff166005811115611b3657fe5b1415611b46576007549050611cc2565b60016005811115611b5357fe5b600d600084815260200190815260200160002060070160009054906101000a900460ff166005811115611b8257fe5b1415611b92576008549050611cc2565b60026005811115611b9f57fe5b600d600084815260200190815260200160002060070160009054906101000a900460ff166005811115611bce57fe5b1415611bde576009549050611cc2565b60036005811115611beb57fe5b600d600084815260200190815260200160002060070160009054906101000a900460ff166005811115611c1a57fe5b1415611c2a57600a549050611cc2565b60046005811115611c3757fe5b600d600084815260200190815260200160002060070160009054906101000a900460ff166005811115611c6657fe5b1415611c7657600b549050611cc2565b600580811115611c8257fe5b600d600084815260200190815260200160002060070160009054906101000a900460ff166005811115611cb157fe5b1415611cc157600c549050611cc2565b5b919050565b6000809054906101000a900473ffffffffffffffffffffffffffffffffffffffff1673ffffffffffffffffffffffffffffffffffffffff163373ffffffffffffffffffffffffffffffffffffffff1614611d2057600080fd5b60036000815480929190600101919050555060405180608001604052808473ffffffffffffffffffffffffffffffffffffffff168152602001600354815260200183815260200182815250600f6000600354815260200190815260200160002060008201518160000160006101000a81548173ffffffffffffffffffffffffffffffffffffffff021916908373ffffffffffffffffffffffffffffffffffffffff160217905550602082015181600101556040820151816002019080519060200190611ded929190612ef2565b506060820151816003019080519060200190611e0a929190612ef2565b50905050505050565b60075481565b60055481565b6000809054906101000a900473ffffffffffffffffffffffffffffffffffffffff1673ffffffffffffffffffffffffffffffffffffffff163373ffffffffffffffffffffffffffffffffffffffff1614611e7857600080fd5b60056000815480929190600101919050555060405180608001604052808473ffffffffffffffffffffffffffffffffffffffff16815260200160055481526020018381526020018281525060116000600554815260200190815260200160002060008201518160000160006101000a81548173ffffffffffffffffffffffffffffffffffffffff021916908373ffffffffffffffffffffffffffffffffffffffff160217905550602082015181600101556040820151816002019080519060200190611f45929190612ef2565b506060820151816003019080519060200190611f62929190612ef2565b50905050505050565b600c5481565b600081118015611f8357506001548111155b611f8c57600080fd5b6000611f9733612d70565b905060008111611fa657600080fd5b60006005811115611fb357fe5b600d600084815260200190815260200160002060070160009054906101000a900460ff166005811115611fe257fe5b14611fec57600080fd5b80600d6000848152602001908152602001600020600301819055506001600d600084815260200190815260200160002060070160006101000a81548160ff0219169083600581111561203a57fe5b02179055505050565b6000809054906101000a900473ffffffffffffffffffffffffffffffffffffffff1673ffffffffffffffffffffffffffffffffffffffff163373ffffffffffffffffffffffffffffffffffffffff161461209c57600080fd5b60006002541180156120b057506000600354115b80156120be57506000600454115b80156120cc57506000600554115b6120d557600080fd5b6001600081548092919060010191905055506040518061012001604052806001548152602001838152602001828152602001600081526020016000815260200160008152602001600081526020016000600581111561213057fe5b8152602001600654815250600d60006001548152602001908152602001600020600082015181600001556020820151816001019080519060200190612176929190612ef2565b506040820151816002019080519060200190612193929190612ef2565b50606082015181600301556080820151816004015560a0820151816005015560c0820151816006015560e08201518160070160006101000a81548160ff021916908360058111156121e057fe5b021790555061010082015181600801559050505050565b60008111801561220957506001548111155b61221257600080fd5b600061221d33612bee565b90506000811161222c57600080fd5b600d600083815260200190815260200160002060060154811461224e57600080fd5b6004600581111561225b57fe5b600d600084815260200190815260200160002060070160009054906101000a900460ff16600581111561228a57fe5b1461229457600080fd5b6005600d600084815260200190815260200160002060070160006101000a81548160ff021916908360058111156122c757fe5b02179055505050565b60065481565b6000811180156122e857506001548111155b6122f157600080fd5b60006122fc33612e31565b90506000811161230b57600080fd5b6001600581111561231857fe5b600d600084815260200190815260200160002060070160009054906101000a900460ff16600581111561234757fe5b1461235157600080fd5b80600d6000848152602001908152602001600020600401819055506002600d600084815260200190815260200160002060070160006101000a81548160ff0219169083600581111561239f57fe5b02179055505050565b60015481565b6000809054906101000a900473ffffffffffffffffffffffffffffffffffffffff1681565b600f6020528060005260406000206000915090508060000160009054906101000a900473ffffffffffffffffffffffffffffffffffffffff1690806001015490806002018054600181600116156101000203166002900480601f0160208091040260200160405190810160405280929190818152602001828054600181600116156101000203166002900480156124ab5780601f10612480576101008083540402835291602001916124ab565b820191906000526020600020905b81548152906001019060200180831161248e57829003601f168201915b505050505090806003018054600181600116156101000203166002900480601f0160208091040260200160405190810160405280929190818152602001828054600181600116156101000203166002900480156125495780601f1061251e57610100808354040283529160200191612549565b820191906000526020600020905b81548152906001019060200180831161252c57829003601f168201915b5050505050905084565b60095481565b60025481565b606060006001541161257057600080fd5b6000600581111561257d57fe5b600d600084815260200190815260200160002060070160009054906101000a900460ff1660058111156125ac57fe5b14156125ef576040518060400160405280601081526020017f4d65646963696e65204f72646572656400000000000000000000000000000000815250905061286a565b600160058111156125fc57fe5b600d600084815260200190815260200160002060070160009054906101000a900460ff16600581111561262b57fe5b141561266e576040518060400160405280601981526020017f526177204d6174657269616c20537570706c7920537461676500000000000000815250905061286a565b6002600581111561267b57fe5b600d600084815260200190815260200160002060070160009054906101000a900460ff1660058111156126aa57fe5b14156126ed576040518060400160405280601381526020017f4d616e75666163747572696e6720537461676500000000000000000000000000815250905061286a565b600360058111156126fa57fe5b600d600084815260200190815260200160002060070160009054906101000a900460ff16600581111561272957fe5b141561276c576040518060400160405280601281526020017f446973747269627574696f6e2053746167650000000000000000000000000000815250905061286a565b6004600581111561277957fe5b600d600084815260200190815260200160002060070160009054906101000a900460ff1660058111156127a857fe5b14156127eb576040518060400160405280600c81526020017f52657461696c2053746167650000000000000000000000000000000000000000815250905061286a565b6005808111156127f757fe5b600d600084815260200190815260200160002060070160009054906101000a900460ff16600581111561282657fe5b1415612869576040518060400160405280600d81526020017f4d65646963696e6520536f6c6400000000000000000000000000000000000000815250905061286a565b5b919050565b6000808211801561288257506001548211155b61288b57600080fd5b600d6000838152602001908152602001600020600801549050919050565b600d602052806000526040600020600091509050806000015490806001018054600181600116156101000203166002900480601f01602080910402602001604051908101604052809291908181526020018280546001816001161561010002031660029004801561295b5780601f106129305761010080835404028352916020019161295b565b820191906000526020600020905b81548152906001019060200180831161293e57829003601f168201915b505050505090806002018054600181600116156101000203166002900480601f0160208091040260200160405190810160405280929190818152602001828054600181600116156101000203166002900480156129f95780601f106129ce576101008083540402835291602001916129f9565b820191906000526020600020905b8154815290600101906020018083116129dc57829003601f168201915b5050505050908060030154908060040154908060050154908060060154908060070160009054906101000a900460ff16908060080154905089565b600e6020528060005260406000206000915090508060000160009054906101000a900473ffffffffffffffffffffffffffffffffffffffff1690806001015490806002018054600181600116156101000203166002900480601f016020809104026020016040519081016040528092919081815260200182805460018160011615610100020316600290048015612b0c5780601f10612ae157610100808354040283529160200191612b0c565b820191906000526020600020905b815481529060010190602001808311612aef57829003601f168201915b505050505090806003018054600181600116156101000203166002900480601f016020809104026020016040519081016040528092919081815260200182805460018160011615610100020316600290048015612baa5780601f10612b7f57610100808354040283529160200191612baa565b820191906000526020600020905b815481529060010190602001808311612b8d57829003601f168201915b5050505050905084565b600082118015612bc657506001548211155b612bcf57600080fd5b80600d6000848152602001908152602001600020600801819055505050565b60008060055411612bfe57600080fd5b6000600190505b6005548111612ca4578273ffffffffffffffffffffffffffffffffffffffff166011600083815260200190815260200160002060000160009054906101000a900473ffffffffffffffffffffffffffffffffffffffff1673ffffffffffffffffffffffffffffffffffffffff161415612c97576011600082815260200190815260200160002060010154915050612caa565b8080600101915050612c05565b50600090505b919050565b60008060045411612cbf57600080fd5b6000600190505b6004548111612d65578273ffffffffffffffffffffffffffffffffffffffff166010600083815260200190815260200160002060000160009054906101000a900473ffffffffffffffffffffffffffffffffffffffff1673ffffffffffffffffffffffffffffffffffffffff161415612d58576010600082815260200190815260200160002060010154915050612d6b565b8080600101915050612cc6565b50600090505b919050565b60008060025411612d8057600080fd5b6000600190505b6002548111612e26578273ffffffffffffffffffffffffffffffffffffffff16600e600083815260200190815260200160002060000160009054906101000a900473ffffffffffffffffffffffffffffffffffffffff1673ffffffffffffffffffffffffffffffffffffffff161415612e1957600e600082815260200190815260200160002060010154915050612e2c565b8080600101915050612d87565b50600090505b919050565b60008060035411612e4157600080fd5b6000600190505b6003548111612ee7578273ffffffffffffffffffffffffffffffffffffffff16600f600083815260200190815260200160002060000160009054906101000a900473ffffffffffffffffffffffffffffffffffffffff1673ffffffffffffffffffffffffffffffffffffffff161415612eda57600f600082815260200190815260200160002060010154915050612eed565b8080600101915050612e48565b50600090505b919050565b828054600181600116156101000203166002900490600052602060002090601f016020900481019282601f10612f3357805160ff1916838001178555612f61565b82800160010185558215612f61579182015b82811115612f60578251825591602001919060010190612f45565b5b509050612f6e9190612f72565b5090565b612f9491905b80821115612f90576000816000905550600101612f78565b5090565b9056fea265627a7a72315820ffc087f23e30bf59ad0829d48d1ad53ac00f03b42aa2bba3c91ccd85926b85e764736f6c63430005100032",
  "source": "// SPDX-License-Identifier: MIT\npragma solidity >=0.4.22 <0.9.0;\n\ncontract SupplyChain {\n    //Smart Contract owner will be the person who deploys the contract only he can authorize various roles like retailer, Manufacturer,etc\n    address public Owner;\n\n    //note this constructor will be called when smart contract will be deployed on blockchain\n    constructor() public {\n        Owner = msg.sender;\n    }\n\n    //modifier to make sure only the owner is using the function\n    modifier onlyByOwner() {\n        require(msg.sender == Owner);\n        _;\n    }\n\n\n    enum STAGE {\n        Init,\n        RawMaterialSupply,\n        Manufacture,\n        Distribution,\n        Retail,\n        sold\n    }\n\n\n    uint256 public medicineCtr = 0;\n    //Raw material supplier count\n    uint256 public rmsCtr = 0;\n    //Manufacturer count\n    uint256 public manCtr = 0;\n    //distributor count\n    uint256 public disCtr = 0;\n    //retailer count\n    uint256 public retCtr = 0;\n    uint256 public price=0;\n    uint256 public price1=10;\n    uint256 public price2=20;\n    uint256 public price3=30;\n    uint256 public price4=40;\n    uint256 public price5=50;\n    uint256 public price6=60;\n\n\n    //To store information about the medicine\n    struct medicine {\n        uint256 id; //unique medicine id\n        string name; //name of the medicine\n        string description; //about medicine\n        uint256 RMSid; //id of the Raw Material supplier for this particular medicine\n        uint256 MANid; //id of the Manufacturer for this particular medicine\n        uint256 DISid; //id of the distributor for this particular medicine\n        uint256 RETid; //id of the retailer for this particular medicine\n        STAGE stage; //current medicine stage\n        uint256 price;\n    }\n\n    \n\n    //To store all the medicines on the blockchain\n    function setPrice(uint256 _medicineID, uint256 _price) public {\n    require(_medicineID > 0 && _medicineID <= medicineCtr);\n    MedicineStock[_medicineID].price = _price;\n}\n\nfunction getPrice(uint256 _medicineID) public view returns (uint256) {\n    require(_medicineID > 0 && _medicineID <= medicineCtr);\n    return MedicineStock[_medicineID].price;\n}\n\n    mapping(uint256 => medicine) public MedicineStock;\n\n    //To show status to client applications\n\n    function showStage(uint256 _medicineID)\n        public\n        view\n        returns (string memory)\n    {\n        require(medicineCtr > 0);\n        if (MedicineStock[_medicineID].stage == STAGE.Init)\n            return \"Medicine Ordered\";\n        else if (MedicineStock[_medicineID].stage == STAGE.RawMaterialSupply)\n            return \"Raw Material Supply Stage\";\n        else if (MedicineStock[_medicineID].stage == STAGE.Manufacture)\n            return \"Manufacturing Stage\";\n        else if (MedicineStock[_medicineID].stage == STAGE.Distribution)\n            return \"Distribution Stage\";\n        else if (MedicineStock[_medicineID].stage == STAGE.Retail)\n            return \"Retail Stage\";\n        else if (MedicineStock[_medicineID].stage == STAGE.sold)\n            return \"Medicine Sold\";\n    }\n\n        function showPrice(uint256 _medicineID)\n        public\n        view\n        returns (uint256)\n    {\n        require(medicineCtr > 0);\n        if (MedicineStock[_medicineID].stage == STAGE.Init)\n            return (price1);\n        else if (MedicineStock[_medicineID].stage == STAGE.RawMaterialSupply)\n            return (price2);\n        else if (MedicineStock[_medicineID].stage == STAGE.Manufacture)\n            return (price3);\n        else if (MedicineStock[_medicineID].stage == STAGE.Distribution)\n            return (price4);\n        else if (MedicineStock[_medicineID].stage == STAGE.Retail)\n            return (price5);\n        else if (MedicineStock[_medicineID].stage == STAGE.sold)\n            return (price6);\n    }\n\n    //To store information about raw material supplier\n    struct rawMaterialSupplier {\n        address addr;\n        uint256 id; //supplier id\n        string name; //Name of the raw material supplier\n        string place; //Place the raw material supplier is based in\n    }\n\n    //To store all the raw material suppliers on the blockchain\n    mapping(uint256 => rawMaterialSupplier) public RMS;\n\n    //To store information about manufacturer\n    struct manufacturer {\n        address addr;\n        uint256 id; //manufacturer id\n        string name; //Name of the manufacturer\n        string place; //Place the manufacturer is based in\n    }\n\n    //To store all the manufacturers on the blockchain\n    mapping(uint256 => manufacturer) public MAN;\n\n    //To store information about distributor\n    struct distributor {\n        address addr;\n        uint256 id; //distributor id\n        string name; //Name of the distributor\n        string place; //Place the distributor is based in\n    }\n\n    //To store all the distributors on the blockchain\n    mapping(uint256 => distributor) public DIS;\n\n    //To store information about retailer\n    struct retailer {\n        address addr;\n        uint256 id; //retailer id\n        string name; //Name of the retailer\n        string place; //Place the retailer is based in\n    }\n\n    //To store all the retailers on the blockchain\n    mapping(uint256 => retailer) public RET;\n\n    //To add raw material suppliers. Only contract owner can add a new raw material supplier\n    function addRMS(\n        address _address,\n        string memory _name,\n        string memory _place\n    ) public onlyByOwner() {\n        rmsCtr++;\n        RMS[rmsCtr] = rawMaterialSupplier(_address, rmsCtr, _name, _place);\n    }\n\n    //To add manufacturer. Only contract owner can add a new manufacturer\n    function addManufacturer(\n        address _address,\n        string memory _name,\n        string memory _place\n    ) public onlyByOwner() {\n        manCtr++;\n        MAN[manCtr] = manufacturer(_address, manCtr, _name, _place);\n    }\n\n    //To add distributor. Only contract owner can add a new distributor\n    function addDistributor(\n        address _address,\n        string memory _name,\n        string memory _place\n    ) public onlyByOwner() {\n        disCtr++;\n        DIS[disCtr] = distributor(_address, disCtr, _name, _place);\n    }\n\n    //To add retailer. Only contract owner can add a new retailer\n    function addRetailer(\n        address _address,\n        string memory _name,\n        string memory _place\n    ) public onlyByOwner() {\n        retCtr++;\n        RET[retCtr] = retailer(_address, retCtr, _name, _place);\n    }\n\n    //To supply raw materials from RMS supplier to the manufacturer\n    function RMSsupply(uint256 _medicineID) public {\n        require(_medicineID > 0 && _medicineID <= medicineCtr);\n        uint256 _id = findRMS(msg.sender);\n        require(_id > 0);\n        require(MedicineStock[_medicineID].stage == STAGE.Init);\n        MedicineStock[_medicineID].RMSid = _id;\n        MedicineStock[_medicineID].stage = STAGE.RawMaterialSupply;\n    }\n\n    //To check if RMS is available in the blockchain\n    function findRMS(address _address) private view returns (uint256) {\n        require(rmsCtr > 0);\n        for (uint256 i = 1; i <= rmsCtr; i++) {\n            if (RMS[i].addr == _address) return RMS[i].id;\n        }\n        return 0;\n    }\n\n    //To manufacture medicine\n    function Manufacturing(uint256 _medicineID) public {\n        require(_medicineID > 0 && _medicineID <= medicineCtr);\n        uint256 _id = findMAN(msg.sender);\n        require(_id > 0);\n        require(MedicineStock[_medicineID].stage == STAGE.RawMaterialSupply);\n        MedicineStock[_medicineID].MANid = _id;\n        MedicineStock[_medicineID].stage = STAGE.Manufacture;\n    }\n\n    //To check if Manufacturer is available in the blockchain\n    function findMAN(address _address) private view returns (uint256) {\n        require(manCtr > 0);\n        for (uint256 i = 1; i <= manCtr; i++) {\n            if (MAN[i].addr == _address) return MAN[i].id;\n        }\n        return 0;\n    }\n\n    //To supply medicines from Manufacturer to distributor\n    function Distribute(uint256 _medicineID) public {\n        require(_medicineID > 0 && _medicineID <= medicineCtr);\n        uint256 _id = findDIS(msg.sender);\n        require(_id > 0);\n        require(MedicineStock[_medicineID].stage == STAGE.Manufacture);\n        MedicineStock[_medicineID].DISid = _id;\n        MedicineStock[_medicineID].stage = STAGE.Distribution;\n    }\n\n    //To check if distributor is available in the blockchain\n    function findDIS(address _address) private view returns (uint256) {\n        require(disCtr > 0);\n        for (uint256 i = 1; i <= disCtr; i++) {\n            if (DIS[i].addr == _address) return DIS[i].id;\n        }\n        return 0;\n    }\n\n    //To supply medicines from distributor to retailer\n    function Retail(uint256 _medicineID) public {\n        require(_medicineID > 0 && _medicineID <= medicineCtr);\n        uint256 _id = findRET(msg.sender);\n        require(_id > 0);\n        require(MedicineStock[_medicineID].stage == STAGE.Distribution);\n        MedicineStock[_medicineID].RETid = _id;\n        MedicineStock[_medicineID].stage = STAGE.Retail;\n    }\n\n    //To check if retailer is available in the blockchain\n    function findRET(address _address) private view returns (uint256) {\n        require(retCtr > 0);\n        for (uint256 i = 1; i <= retCtr; i++) {\n            if (RET[i].addr == _address) return RET[i].id;\n        }\n        return 0;\n    }\n\n    //To sell medicines from retailer to consumer\n    function sold(uint256 _medicineID) public {\n        require(_medicineID > 0 && _medicineID <= medicineCtr);\n        uint256 _id = findRET(msg.sender);\n        require(_id > 0);\n        require(_id == MedicineStock[_medicineID].RETid); //Only correct retailer can mark medicine as sold\n        require(MedicineStock[_medicineID].stage == STAGE.Retail);\n        MedicineStock[_medicineID].stage = STAGE.sold;\n    }\n\n    // To add new medicines to the stock\n    function addMedicine(string memory _name, string memory _description)\n        public\n        onlyByOwner()\n    {\n        require((rmsCtr > 0) && (manCtr > 0) && (disCtr > 0) && (retCtr > 0));\n        medicineCtr++;\n        MedicineStock[medicineCtr] = medicine(\n            medicineCtr,\n            _name,\n            _description,\n            0,\n            0,\n            0,\n            0,\n            STAGE.Init,price);\n    }\n}",
  "sourcePath": "C:\\Users\\User\\Documents\\supply-chain-truffle-react-main\\contracts\\SupplyChain.sol",
  "compiler": {
    "name": "solc",
    "version": "0.5.16+commit.9c3226ce.Emscripten.clang"
  },
  "schemaVersion": "3.4.10",
  "updatedAt": "2023-05-05T10:29:35.149Z",
  "networkType": "ethereum",
  "devdoc": {
    "methods": {}
  },
  "userdoc": {
    "methods": {}
  }
}