{
  "contractName": "SupplyChain",
  "abi": [
    {
      "inputs": [],
      "payable": false,
      "stateMutability": "nonpayable",
      "type": "constructor"
    },
    {
      "constant": true,
      "inputs": [
        {
          "internalType": "uint256",
          "name": "",
          "type": "uint256"
        }
      ],
      "name": "CertificationStock",
      "outputs": [
        {
          "internalType": "uint256",
          "name": "id",
          "type": "uint256"
        },
        {
          "internalType": "enum SupplyChain.Certification",
          "name": "certify",
          "type": "uint8"
        }
      ],
      "payable": false,
      "stateMutability": "view",
      "type": "function"
    },
    {
      "constant": true,
      "inputs": [
        {
          "internalType": "uint256",
          "name": "",
          "type": "uint256"
        }
      ],
      "name": "DIS",
      "outputs": [
        {
          "internalType": "address",
          "name": "addr",
          "type": "address"
        },
        {
          "internalType": "uint256",
          "name": "id",
          "type": "uint256"
        },
        {
          "internalType": "string",
          "name": "name",
          "type": "string"
        },
        {
          "internalType": "string",
          "name": "place",
          "type": "string"
        }
      ],
      "payable": false,
      "stateMutability": "view",
      "type": "function"
    },
    {
      "constant": true,
      "inputs": [
        {
          "internalType": "uint256",
          "name": "",
          "type": "uint256"
        }
      ],
      "name": "MAN",
      "outputs": [
        {
          "internalType": "address",
          "name": "addr",
          "type": "address"
        },
        {
          "internalType": "uint256",
          "name": "id",
          "type": "uint256"
        },
        {
          "internalType": "string",
          "name": "name",
          "type": "string"
        },
        {
          "internalType": "string",
          "name": "place",
          "type": "string"
        }
      ],
      "payable": false,
      "stateMutability": "view",
      "type": "function"
    },
    {
      "constant": true,
      "inputs": [
        {
          "internalType": "uint256",
          "name": "",
          "type": "uint256"
        }
      ],
      "name": "MedicineStock",
      "outputs": [
        {
          "internalType": "uint256",
          "name": "id",
          "type": "uint256"
        },
        {
          "internalType": "string",
          "name": "name",
          "type": "string"
        },
        {
          "internalType": "uint256",
          "name": "RMSid",
          "type": "uint256"
        },
        {
          "internalType": "uint256",
          "name": "MANid",
          "type": "uint256"
        },
        {
          "internalType": "uint256",
          "name": "DISid",
          "type": "uint256"
        },
        {
          "internalType": "uint256",
          "name": "RETid",
          "type": "uint256"
        },
        {
          "internalType": "enum SupplyChain.STAGE",
          "name": "stage",
          "type": "uint8"
        },
        {
          "internalType": "uint256",
          "name": "price1",
          "type": "uint256"
        },
        {
          "internalType": "uint256",
          "name": "price2",
          "type": "uint256"
        },
        {
          "internalType": "uint256",
          "name": "price3",
          "type": "uint256"
        },
        {
          "internalType": "uint256",
          "name": "price4",
          "type": "uint256"
        },
        {
          "internalType": "uint256",
          "name": "organicscore",
          "type": "uint256"
        }
      ],
      "payable": false,
      "stateMutability": "view",
      "type": "function"
    },
    {
      "constant": true,
      "inputs": [],
      "name": "Owner",
      "outputs": [
        {
          "internalType": "address",
          "name": "",
          "type": "address"
        }
      ],
      "payable": false,
      "stateMutability": "view",
      "type": "function"
    },
    {
      "constant": true,
      "inputs": [
        {
          "internalType": "uint256",
          "name": "",
          "type": "uint256"
        }
      ],
      "name": "RET",
      "outputs": [
        {
          "internalType": "address",
          "name": "addr",
          "type": "address"
        },
        {
          "internalType": "uint256",
          "name": "id",
          "type": "uint256"
        },
        {
          "internalType": "string",
          "name": "name",
          "type": "string"
        },
        {
          "internalType": "string",
          "name": "place",
          "type": "string"
        }
      ],
      "payable": false,
      "stateMutability": "view",
      "type": "function"
    },
    {
      "constant": true,
      "inputs": [
        {
          "internalType": "uint256",
          "name": "",
          "type": "uint256"
        }
      ],
      "name": "RMS",
      "outputs": [
        {
          "internalType": "address",
          "name": "addr",
          "type": "address"
        },
        {
          "internalType": "uint256",
          "name": "id",
          "type": "uint256"
        },
        {
          "internalType": "string",
          "name": "name",
          "type": "string"
        },
        {
          "internalType": "string",
          "name": "place",
          "type": "string"
        }
      ],
      "payable": false,
      "stateMutability": "view",
      "type": "function"
    },
    {
      "constant": true,
      "inputs": [
        {
          "internalType": "uint256",
          "name": "",
          "type": "uint256"
        }
      ],
      "name": "Soil",
      "outputs": [
        {
          "internalType": "uint256",
          "name": "id",
          "type": "uint256"
        },
        {
          "internalType": "uint256",
          "name": "NaturalFertilizer",
          "type": "uint256"
        },
        {
          "internalType": "uint256",
          "name": "SyntheticFertilizer",
          "type": "uint256"
        },
        {
          "internalType": "uint256",
          "name": "Organicertilizer",
          "type": "uint256"
        },
        {
          "internalType": "uint256",
          "name": "phLevel",
          "type": "uint256"
        },
        {
          "internalType": "uint256",
          "name": "waterquality",
          "type": "uint256"
        }
      ],
      "payable": false,
      "stateMutability": "view",
      "type": "function"
    },
    {
      "constant": true,
      "inputs": [
        {
          "internalType": "uint256",
          "name": "",
          "type": "uint256"
        }
      ],
      "name": "StorageStock",
      "outputs": [
        {
          "internalType": "uint256",
          "name": "id",
          "type": "uint256"
        },
        {
          "internalType": "uint256",
          "name": "temp",
          "type": "uint256"
        },
        {
          "internalType": "uint256",
          "name": "humidity",
          "type": "uint256"
        }
      ],
      "payable": false,
      "stateMutability": "view",
      "type": "function"
    },
    {
      "constant": true,
      "inputs": [],
      "name": "disCtr",
      "outputs": [
        {
          "internalType": "uint256",
          "name": "",
          "type": "uint256"
        }
      ],
      "payable": false,
      "stateMutability": "view",
      "type": "function"
    },
    {
      "constant": true,
      "inputs": [],
      "name": "manCtr",
      "outputs": [
        {
          "internalType": "uint256",
          "name": "",
          "type": "uint256"
        }
      ],
      "payable": false,
      "stateMutability": "view",
      "type": "function"
    },
    {
      "constant": true,
      "inputs": [],
      "name": "medicineCtr",
      "outputs": [
        {
          "internalType": "uint256",
          "name": "",
          "type": "uint256"
        }
      ],
      "payable": false,
      "stateMutability": "view",
      "type": "function"
    },
    {
      "constant": true,
      "inputs": [],
      "name": "organicscore",
      "outputs": [
        {
          "internalType": "uint256",
          "name": "",
          "type": "uint256"
        }
      ],
      "payable": false,
      "stateMutability": "view",
      "type": "function"
    },
    {
      "constant": true,
      "inputs": [],
      "name": "price",
      "outputs": [
        {
          "internalType": "uint256",
          "name": "",
          "type": "uint256"
        }
      ],
      "payable": false,
      "stateMutability": "view",
      "type": "function"
    },
    {
      "constant": true,
      "inputs": [],
      "name": "price1",
      "outputs": [
        {
          "internalType": "uint256",
          "name": "",
          "type": "uint256"
        }
      ],
      "payable": false,
      "stateMutability": "view",
      "type": "function"
    },
    {
      "constant": true,
      "inputs": [],
      "name": "price2",
      "outputs": [
        {
          "internalType": "uint256",
          "name": "",
          "type": "uint256"
        }
      ],
      "payable": false,
      "stateMutability": "view",
      "type": "function"
    },
    {
      "constant": true,
      "inputs": [],
      "name": "price3",
      "outputs": [
        {
          "internalType": "uint256",
          "name": "",
          "type": "uint256"
        }
      ],
      "payable": false,
      "stateMutability": "view",
      "type": "function"
    },
    {
      "constant": true,
      "inputs": [],
      "name": "price4",
      "outputs": [
        {
          "internalType": "uint256",
          "name": "",
          "type": "uint256"
        }
      ],
      "payable": false,
      "stateMutability": "view",
      "type": "function"
    },
    {
      "constant": true,
      "inputs": [],
      "name": "price5",
      "outputs": [
        {
          "internalType": "uint256",
          "name": "",
          "type": "uint256"
        }
      ],
      "payable": false,
      "stateMutability": "view",
      "type": "function"
    },
    {
      "constant": true,
      "inputs": [],
      "name": "price6",
      "outputs": [
        {
          "internalType": "uint256",
          "name": "",
          "type": "uint256"
        }
      ],
      "payable": false,
      "stateMutability": "view",
      "type": "function"
    },
    {
      "constant": true,
      "inputs": [],
      "name": "retCtr",
      "outputs": [
        {
          "internalType": "uint256",
          "name": "",
          "type": "uint256"
        }
      ],
      "payable": false,
      "stateMutability": "view",
      "type": "function"
    },
    {
      "constant": true,
      "inputs": [],
      "name": "rmsCtr",
      "outputs": [
        {
          "internalType": "uint256",
          "name": "",
          "type": "uint256"
        }
      ],
      "payable": false,
      "stateMutability": "view",
      "type": "function"
    },
    {
      "constant": false,
      "inputs": [
        {
          "internalType": "uint256",
          "name": "_medicineID",
          "type": "uint256"
        },
        {
          "internalType": "uint256",
          "name": "_price",
          "type": "uint256"
        }
      ],
      "name": "setPrice1",
      "outputs": [],
      "payable": false,
      "stateMutability": "nonpayable",
      "type": "function"
    },
    {
      "constant": false,
      "inputs": [
        {
          "internalType": "uint256",
          "name": "_medicineID",
          "type": "uint256"
        },
        {
          "internalType": "uint256",
          "name": "_price",
          "type": "uint256"
        }
      ],
      "name": "setPrice2",
      "outputs": [],
      "payable": false,
      "stateMutability": "nonpayable",
      "type": "function"
    },
    {
      "constant": false,
      "inputs": [
        {
          "internalType": "uint256",
          "name": "_medicineID",
          "type": "uint256"
        },
        {
          "internalType": "uint256",
          "name": "_price",
          "type": "uint256"
        }
      ],
      "name": "setPrice3",
      "outputs": [],
      "payable": false,
      "stateMutability": "nonpayable",
      "type": "function"
    },
    {
      "constant": false,
      "inputs": [
        {
          "internalType": "uint256",
          "name": "_medicineID",
          "type": "uint256"
        },
        {
          "internalType": "uint256",
          "name": "_price",
          "type": "uint256"
        }
      ],
      "name": "setPrice4",
      "outputs": [],
      "payable": false,
      "stateMutability": "nonpayable",
      "type": "function"
    },
    {
      "constant": true,
      "inputs": [
        {
          "internalType": "uint256",
          "name": "_medicineID",
          "type": "uint256"
        }
      ],
      "name": "getPrice1",
      "outputs": [
        {
          "internalType": "uint256",
          "name": "",
          "type": "uint256"
        }
      ],
      "payable": false,
      "stateMutability": "view",
      "type": "function"
    },
    {
      "constant": true,
      "inputs": [
        {
          "internalType": "uint256",
          "name": "_medicineID",
          "type": "uint256"
        }
      ],
      "name": "getPrice2",
      "outputs": [
        {
          "internalType": "uint256",
          "name": "",
          "type": "uint256"
        }
      ],
      "payable": false,
      "stateMutability": "view",
      "type": "function"
    },
    {
      "constant": true,
      "inputs": [
        {
          "internalType": "uint256",
          "name": "_medicineID",
          "type": "uint256"
        }
      ],
      "name": "getPrice3",
      "outputs": [
        {
          "internalType": "uint256",
          "name": "",
          "type": "uint256"
        }
      ],
      "payable": false,
      "stateMutability": "view",
      "type": "function"
    },
    {
      "constant": true,
      "inputs": [
        {
          "internalType": "uint256",
          "name": "_medicineID",
          "type": "uint256"
        }
      ],
      "name": "getPrice4",
      "outputs": [
        {
          "internalType": "uint256",
          "name": "",
          "type": "uint256"
        }
      ],
      "payable": false,
      "stateMutability": "view",
      "type": "function"
    },
    {
      "constant": true,
      "inputs": [
        {
          "internalType": "uint256",
          "name": "_medicineID",
          "type": "uint256"
        }
      ],
      "name": "showCertification",
      "outputs": [
        {
          "internalType": "string",
          "name": "",
          "type": "string"
        }
      ],
      "payable": false,
      "stateMutability": "view",
      "type": "function"
    },
    {
      "constant": true,
      "inputs": [
        {
          "internalType": "uint256",
          "name": "_medicineID",
          "type": "uint256"
        }
      ],
      "name": "showStage",
      "outputs": [
        {
          "internalType": "string",
          "name": "",
          "type": "string"
        }
      ],
      "payable": false,
      "stateMutability": "view",
      "type": "function"
    },
    {
      "constant": true,
      "inputs": [
        {
          "internalType": "uint256",
          "name": "_medicineID",
          "type": "uint256"
        }
      ],
      "name": "showPrice",
      "outputs": [
        {
          "internalType": "uint256",
          "name": "",
          "type": "uint256"
        }
      ],
      "payable": false,
      "stateMutability": "view",
      "type": "function"
    },
    {
      "constant": false,
      "inputs": [
        {
          "internalType": "address",
          "name": "_address",
          "type": "address"
        },
        {
          "internalType": "string",
          "name": "_name",
          "type": "string"
        },
        {
          "internalType": "string",
          "name": "_place",
          "type": "string"
        }
      ],
      "name": "addRMS",
      "outputs": [],
      "payable": false,
      "stateMutability": "nonpayable",
      "type": "function"
    },
    {
      "constant": false,
      "inputs": [
        {
          "internalType": "address",
          "name": "_address",
          "type": "address"
        },
        {
          "internalType": "string",
          "name": "_name",
          "type": "string"
        },
        {
          "internalType": "string",
          "name": "_place",
          "type": "string"
        }
      ],
      "name": "addManufacturer",
      "outputs": [],
      "payable": false,
      "stateMutability": "nonpayable",
      "type": "function"
    },
    {
      "constant": false,
      "inputs": [
        {
          "internalType": "address",
          "name": "_address",
          "type": "address"
        },
        {
          "internalType": "string",
          "name": "_name",
          "type": "string"
        },
        {
          "internalType": "string",
          "name": "_place",
          "type": "string"
        }
      ],
      "name": "addDistributor",
      "outputs": [],
      "payable": false,
      "stateMutability": "nonpayable",
      "type": "function"
    },
    {
      "constant": false,
      "inputs": [
        {
          "internalType": "address",
          "name": "_address",
          "type": "address"
        },
        {
          "internalType": "string",
          "name": "_name",
          "type": "string"
        },
        {
          "internalType": "string",
          "name": "_place",
          "type": "string"
        }
      ],
      "name": "addRetailer",
      "outputs": [],
      "payable": false,
      "stateMutability": "nonpayable",
      "type": "function"
    },
    {
      "constant": false,
      "inputs": [
        {
          "internalType": "uint256",
          "name": "_medicineID",
          "type": "uint256"
        },
        {
          "internalType": "uint256",
          "name": "_nf",
          "type": "uint256"
        },
        {
          "internalType": "uint256",
          "name": "_sf",
          "type": "uint256"
        },
        {
          "internalType": "uint256",
          "name": "_of",
          "type": "uint256"
        }
      ],
      "name": "RMSsupply",
      "outputs": [],
      "payable": false,
      "stateMutability": "nonpayable",
      "type": "function"
    },
    {
      "constant": false,
      "inputs": [
        {
          "internalType": "uint256",
          "name": "_medicineID",
          "type": "uint256"
        },
        {
          "internalType": "uint256",
          "name": "_ph",
          "type": "uint256"
        },
        {
          "internalType": "uint256",
          "name": "_wq",
          "type": "uint256"
        }
      ],
      "name": "Manufacturing",
      "outputs": [],
      "payable": false,
      "stateMutability": "nonpayable",
      "type": "function"
    },
    {
      "constant": false,
      "inputs": [
        {
          "internalType": "uint256",
          "name": "_medicineID",
          "type": "uint256"
        },
        {
          "internalType": "uint256",
          "name": "_temp",
          "type": "uint256"
        },
        {
          "internalType": "uint256",
          "name": "_hum",
          "type": "uint256"
        }
      ],
      "name": "Distribute",
      "outputs": [],
      "payable": false,
      "stateMutability": "nonpayable",
      "type": "function"
    },
    {
      "constant": false,
      "inputs": [
        {
          "internalType": "uint256",
          "name": "_medicineID",
          "type": "uint256"
        }
      ],
      "name": "Retail",
      "outputs": [],
      "payable": false,
      "stateMutability": "nonpayable",
      "type": "function"
    },
    {
      "constant": false,
      "inputs": [
        {
          "internalType": "uint256",
          "name": "_medicineID",
          "type": "uint256"
        }
      ],
      "name": "sold",
      "outputs": [],
      "payable": false,
      "stateMutability": "nonpayable",
      "type": "function"
    },
    {
      "constant": false,
      "inputs": [
        {
          "internalType": "string",
          "name": "_name",
          "type": "string"
        }
      ],
      "name": "addMedicine",
      "outputs": [],
      "payable": false,
      "stateMutability": "nonpayable",
      "type": "function"
    }
  ],
  "bytecode": "0x6080604052600060015560006002556000600355600060045560006005556000600655600a6007556014600855601e6009556028600a556032600b55603c600c556000600d5534801561005157600080fd5b50336000806101000a81548173ffffffffffffffffffffffffffffffffffffffff021916908373ffffffffffffffffffffffffffffffffffffffff1602179055506138ac806100a16000396000f3fe608060405234801561001057600080fd5b50600436106102695760003560e01c80637e43d94d11610151578063b4a99a4e116100c3578063dd28639811610087578063dd2863981461130f578063e0a467911461132d578063e101a2e014611365578063eb1a06b51461140c578063eef5cb401461150e578063f8b01d141461165b57610269565b8063b4a99a4e146110e0578063b5588a001461112a578063ba8d2de414611162578063cc403069146111a4578063d778c911146112f157610269565b80639014cd49116101155780639014cd4914610fb05780639c03facb14610ff25780639d48983e14611020578063a035b1fe14611062578063a95f29d914611080578063b2dca3d51461109e57610269565b80637e43d94d14610d7a578063811c280b14610d9857806385604e3114610de8578063857ddb0414610e20578063865b554814610f9257610269565b80633d753a1c116101ea57806359bf286f116101ae57806359bf286f1461098257806360234f1014610acf578063641e90de14610b8a57806364bb057f14610ba85780636a992c9f14610bea5780636caf25ce14610d5c57610269565b80633d753a1c14610815578063438e9c4d146108435780634fa15faf1461086157806353670e5d146108a3578063579c05df1461094a57610269565b806327f028121161023157806327f02812146103a85780632a4af440146103c65780632b0187ac146105385780632b70b08d146106855780632bdb2e6b146107f757610269565b8063115eb9231461026e5780631566d53f146102d35780631852fed21461032a578063273786841461036c57806327a3181d1461038a575b600080fd5b61029a6004803603602081101561028457600080fd5b81019080803590602001909291905050506116a7565b60405180878152602001868152602001858152602001848152602001838152602001828152602001965050505050505060405180910390f35b6102ff600480360360208110156102e957600080fd5b81019080803590602001909291905050506116e3565b6040518083815260200182600281111561031557fe5b60ff1681526020019250505060405180910390f35b6103566004803603602081101561034057600080fd5b8101908080359060200190929190505050611714565b6040518082815260200191505060405180910390f35b610374611734565b6040518082815260200191505060405180910390f35b61039261173a565b6040518082815260200191505060405180910390f35b6103b0611740565b6040518082815260200191505060405180910390f35b610536600480360360608110156103dc57600080fd5b81019080803573ffffffffffffffffffffffffffffffffffffffff1690602001909291908035906020019064010000000081111561041957600080fd5b82018360208201111561042b57600080fd5b8035906020019184600183028401116401000000008311171561044d57600080fd5b91908080601f016020809104026020016040519081016040528093929190818152602001838380828437600081840152601f19601f820116905080830192505050505050509192919290803590602001906401000000008111156104b057600080fd5b8201836020820111156104c257600080fd5b803590602001918460018302840111640100000000831117156104e457600080fd5b91908080601f016020809104026020016040519081016040528093929190818152602001838380828437600081840152601f19601f820116905080830192505050505050509192919290505050611746565b005b6105646004803603602081101561054e57600080fd5b8101908080359060200190929190505050611892565b604051808573ffffffffffffffffffffffffffffffffffffffff1673ffffffffffffffffffffffffffffffffffffffff1681526020018481526020018060200180602001838103835285818151815260200191508051906020019080838360005b838110156105e05780820151818401526020810190506105c5565b50505050905090810190601f16801561060d5780820380516001836020036101000a031916815260200191505b50838103825284818151815260200191508051906020019080838360005b8381101561064657808201518184015260208101905061062b565b50505050905090810190601f1680156106735780820380516001836020036101000a031916815260200191505b50965050505050505060405180910390f35b6107f56004803603606081101561069b57600080fd5b81019080803573ffffffffffffffffffffffffffffffffffffffff169060200190929190803590602001906401000000008111156106d857600080fd5b8201836020820111156106ea57600080fd5b8035906020019184600183028401116401000000008311171561070c57600080fd5b91908080601f016020809104026020016040519081016040528093929190818152602001838380828437600081840152601f19601f8201169050808301925050505050505091929192908035906020019064010000000081111561076f57600080fd5b82018360208201111561078157600080fd5b803590602001918460018302840111640100000000831117156107a357600080fd5b91908080601f016020809104026020016040519081016040528093929190818152602001838380828437600081840152601f19601f820116905080830192505050505050509192919290505050611a12565b005b6107ff611b5e565b6040518082815260200191505060405180910390f35b6108416004803603602081101561082b57600080fd5b8101908080359060200190929190505050611b64565b005b61084b611c6e565b6040518082815260200191505060405180910390f35b6108a16004803603606081101561087757600080fd5b81019080803590602001909291908035906020019092919080359060200190929190505050611c74565b005b6108cf600480360360208110156108b957600080fd5b8101908080359060200190929190505050611db6565b6040518080602001828103825283818151815260200191508051906020019080838360005b8381101561090f5780820151818401526020810190506108f4565b50505050905090810190601f16801561093c5780820380516001836020036101000a031916815260200191505b509250505060405180910390f35b6109806004803603604081101561096057600080fd5b810190808035906020019092919080359060200190929190505050611fc4565b005b6109ae6004803603602081101561099857600080fd5b8101908080359060200190929190505050611fe3565b604051808573ffffffffffffffffffffffffffffffffffffffff1673ffffffffffffffffffffffffffffffffffffffff1681526020018481526020018060200180602001838103835285818151815260200191508051906020019080838360005b83811015610a2a578082015181840152602081019050610a0f565b50505050905090810190601f168015610a575780820380516001836020036101000a031916815260200191505b50838103825284818151815260200191508051906020019080838360005b83811015610a90578082015181840152602081019050610a75565b50505050905090810190601f168015610abd5780820380516001836020036101000a031916815260200191505b50965050505050505060405180910390f35b610b8860048036036020811015610ae557600080fd5b8101908080359060200190640100000000811115610b0257600080fd5b820183602082011115610b1457600080fd5b80359060200191846001830284011164010000000083111715610b3657600080fd5b91908080601f016020809104026020016040519081016040528093929190818152602001838380828437600081840152601f19601f820116905080830192505050505050509192919290505050612163565b005b610b9261233e565b6040518082815260200191505060405180910390f35b610bd460048036036020811015610bbe57600080fd5b8101908080359060200190929190505050612344565b6040518082815260200191505060405180910390f35b610d5a60048036036060811015610c0057600080fd5b81019080803573ffffffffffffffffffffffffffffffffffffffff16906020019092919080359060200190640100000000811115610c3d57600080fd5b820183602082011115610c4f57600080fd5b80359060200191846001830284011164010000000083111715610c7157600080fd5b91908080601f016020809104026020016040519081016040528093929190818152602001838380828437600081840152601f19601f82011690508083019250505050505050919291929080359060200190640100000000811115610cd457600080fd5b820183602082011115610ce657600080fd5b80359060200191846001830284011164010000000083111715610d0857600080fd5b91908080601f016020809104026020016040519081016040528093929190818152602001838380828437600081840152601f19601f8201169050808301925050505050505091929192905050506125f7565b005b610d64612743565b6040518082815260200191505060405180910390f35b610d82612749565b6040518082815260200191505060405180910390f35b610dc460048036036020811015610dae57600080fd5b810190808035906020019092919050505061274f565b60405180848152602001838152602001828152602001935050505060405180910390f35b610e1e60048036036040811015610dfe57600080fd5b810190808035906020019092919080359060200190929190505050612779565b005b610f9060048036036060811015610e3657600080fd5b81019080803573ffffffffffffffffffffffffffffffffffffffff16906020019092919080359060200190640100000000811115610e7357600080fd5b820183602082011115610e8557600080fd5b80359060200191846001830284011164010000000083111715610ea757600080fd5b91908080601f016020809104026020016040519081016040528093929190818152602001838380828437600081840152601f19601f82011690508083019250505050505050919291929080359060200190640100000000811115610f0a57600080fd5b820183602082011115610f1c57600080fd5b80359060200191846001830284011164010000000083111715610f3e57600080fd5b91908080601f016020809104026020016040519081016040528093929190818152602001838380828437600081840152601f19601f820116905080830192505050505050509192919290505050612798565b005b610f9a6128e4565b6040518082815260200191505060405180910390f35b610fdc60048036036020811015610fc657600080fd5b81019080803590602001909291905050506128ea565b6040518082815260200191505060405180910390f35b61101e6004803603602081101561100857600080fd5b810190808035906020019092919050505061290a565b005b6110606004803603606081101561103657600080fd5b810190808035906020019092919080359060200190929190803590602001909291905050506129e3565b005b61106a612b25565b6040518082815260200191505060405180910390f35b611088612b2b565b6040518082815260200191505060405180910390f35b6110ca600480360360208110156110b457600080fd5b8101908080359060200190929190505050612b31565b6040518082815260200191505060405180910390f35b6110e8612b51565b604051808273ffffffffffffffffffffffffffffffffffffffff1673ffffffffffffffffffffffffffffffffffffffff16815260200191505060405180910390f35b6111606004803603604081101561114057600080fd5b810190808035906020019092919080359060200190929190505050612b76565b005b61118e6004803603602081101561117857600080fd5b8101908080359060200190929190505050612b95565b6040518082815260200191505060405180910390f35b6111d0600480360360208110156111ba57600080fd5b8101908080359060200190929190505050612bb5565b604051808573ffffffffffffffffffffffffffffffffffffffff1673ffffffffffffffffffffffffffffffffffffffff1681526020018481526020018060200180602001838103835285818151815260200191508051906020019080838360005b8381101561124c578082015181840152602081019050611231565b50505050905090810190601f1680156112795780820380516001836020036101000a031916815260200191505b50838103825284818151815260200191508051906020019080838360005b838110156112b2578082015181840152602081019050611297565b50505050905090810190601f1680156112df5780820380516001836020036101000a031916815260200191505b50965050505050505060405180910390f35b6112f9612d35565b6040518082815260200191505060405180910390f35b611317612d3b565b6040518082815260200191505060405180910390f35b6113636004803603604081101561134357600080fd5b810190808035906020019092919080359060200190929190505050612d41565b005b6113916004803603602081101561137b57600080fd5b8101908080359060200190929190505050612d60565b6040518080602001828103825283818151815260200191508051906020019080838360005b838110156113d15780820151818401526020810190506113b6565b50505050905090810190601f1680156113fe5780820380516001836020036101000a031916815260200191505b509250505060405180910390f35b6114386004803603602081101561142257600080fd5b81019080803590602001909291905050506130eb565b604051808d8152602001806020018c81526020018b81526020018a815260200189815260200188600581111561146a57fe5b60ff16815260200187815260200186815260200185815260200184815260200183815260200182810382528d818151815260200191508051906020019080838360005b838110156114c85780820151818401526020810190506114ad565b50505050905090810190601f1680156114f55780820380516001836020036101000a031916815260200191505b509d505050505050505050505050505060405180910390f35b61153a6004803603602081101561152457600080fd5b81019080803590602001909291905050506131f0565b604051808573ffffffffffffffffffffffffffffffffffffffff1673ffffffffffffffffffffffffffffffffffffffff1681526020018481526020018060200180602001838103835285818151815260200191508051906020019080838360005b838110156115b657808201518184015260208101905061159b565b50505050905090810190601f1680156115e35780820380516001836020036101000a031916815260200191505b50838103825284818151815260200191508051906020019080838360005b8381101561161c578082015181840152602081019050611601565b50505050905090810190601f1680156116495780820380516001836020036101000a031916815260200191505b50965050505050505060405180910390f35b6116a56004803603608081101561167157600080fd5b8101908080359060200190929190803590602001909291908035906020019092919080359060200190929190505050613370565b005b600f6020528060005260406000206000915090508060000154908060010154908060020154908060030154908060040154908060050154905086565b60116020528060005260406000206000915090508060000154908060010160009054906101000a900460ff16905082565b6000600e6000838152602001908152602001600020600801549050919050565b600a5481565b60085481565b600d5481565b6000809054906101000a900473ffffffffffffffffffffffffffffffffffffffff1673ffffffffffffffffffffffffffffffffffffffff163373ffffffffffffffffffffffffffffffffffffffff161461179f57600080fd5b60046000815480929190600101919050555060405180608001604052808473ffffffffffffffffffffffffffffffffffffffff16815260200160045481526020018381526020018281525060146000600454815260200190815260200160002060008201518160000160006101000a81548173ffffffffffffffffffffffffffffffffffffffff021916908373ffffffffffffffffffffffffffffffffffffffff16021790555060208201518160010155604082015181600201908051906020019061186c9291906137d2565b5060608201518160030190805190602001906118899291906137d2565b50905050505050565b60146020528060005260406000206000915090508060000160009054906101000a900473ffffffffffffffffffffffffffffffffffffffff1690806001015490806002018054600181600116156101000203166002900480601f01602080910402602001604051908101604052809291908181526020018280546001816001161561010002031660029004801561196a5780601f1061193f5761010080835404028352916020019161196a565b820191906000526020600020905b81548152906001019060200180831161194d57829003601f168201915b505050505090806003018054600181600116156101000203166002900480601f016020809104026020016040519081016040528092919081815260200182805460018160011615610100020316600290048015611a085780601f106119dd57610100808354040283529160200191611a08565b820191906000526020600020905b8154815290600101906020018083116119eb57829003601f168201915b5050505050905084565b6000809054906101000a900473ffffffffffffffffffffffffffffffffffffffff1673ffffffffffffffffffffffffffffffffffffffff163373ffffffffffffffffffffffffffffffffffffffff1614611a6b57600080fd5b60026000815480929190600101919050555060405180608001604052808473ffffffffffffffffffffffffffffffffffffffff16815260200160025481526020018381526020018281525060126000600254815260200190815260200160002060008201518160000160006101000a81548173ffffffffffffffffffffffffffffffffffffffff021916908373ffffffffffffffffffffffffffffffffffffffff160217905550602082015181600101556040820151816002019080519060200190611b389291906137d2565b506060820151816003019080519060200190611b559291906137d2565b50905050505050565b60045481565b600081118015611b7657506001548111155b611b7f57600080fd5b6000611b8a336134ce565b905060008111611b9957600080fd5b60036005811115611ba657fe5b600e600084815260200190815260200160002060060160009054906101000a900460ff166005811115611bd557fe5b14611bdf57600080fd5b80600e6000848152602001908152602001600020600501819055506004600e600084815260200190815260200160002060060160006101000a81548160ff02191690836005811115611c2d57fe5b021790555060006011600084815260200190815260200160002060010160006101000a81548160ff02191690836002811115611c6557fe5b02179055505050565b60035481565b600083118015611c8657506001548311155b611c8f57600080fd5b6000611c9a3361358f565b905060008111611ca957600080fd5b60016005811115611cb657fe5b600e600086815260200190815260200160002060060160009054906101000a900460ff166005811115611ce557fe5b14611cef57600080fd5b80600e6000868152602001908152602001600020600301819055506002600e600086815260200190815260200160002060060160006101000a81548160ff02191690836005811115611d3d57fe5b021790555082600f60008681526020019081526020016000206004018190555081600f60008681526020019081526020016000206005018190555060016011600086815260200190815260200160002060010160006101000a81548160ff02191690836002811115611dab57fe5b021790555050505050565b6060600060015411611e30576040517f08c379a00000000000000000000000000000000000000000000000000000000081526004018080602001828103825260148152602001807f4e6f2050726f6475637420617661696c61626c6500000000000000000000000081525060200191505060405180910390fd5b60016002811115611e3d57fe5b6011600084815260200190815260200160002060010160009054906101000a900460ff166002811115611e6c57fe5b1415611eaf576040518060400160405280600281526020017f4e6f0000000000000000000000000000000000000000000000000000000000008152509050611fbf565b600280811115611ebb57fe5b6011600084815260200190815260200160002060010160009054906101000a900460ff166002811115611eea57fe5b1415611f2d576040518060400160405280600781526020017f50656e64696e67000000000000000000000000000000000000000000000000008152509050611fbf565b60006002811115611f3a57fe5b6011600084815260200190815260200160002060010160009054906101000a900460ff166002811115611f6957fe5b1415611fac576040518060400160405280600381526020017f59657300000000000000000000000000000000000000000000000000000000008152509050611fbf565b6040518060200160405280600081525090505b919050565b80600e6000848152602001908152602001600020600a01819055505050565b60156020528060005260406000206000915090508060000160009054906101000a900473ffffffffffffffffffffffffffffffffffffffff1690806001015490806002018054600181600116156101000203166002900480601f0160208091040260200160405190810160405280929190818152602001828054600181600116156101000203166002900480156120bb5780601f10612090576101008083540402835291602001916120bb565b820191906000526020600020905b81548152906001019060200180831161209e57829003601f168201915b505050505090806003018054600181600116156101000203166002900480601f0160208091040260200160405190810160405280929190818152602001828054600181600116156101000203166002900480156121595780601f1061212e57610100808354040283529160200191612159565b820191906000526020600020905b81548152906001019060200180831161213c57829003601f168201915b5050505050905084565b6000809054906101000a900473ffffffffffffffffffffffffffffffffffffffff1673ffffffffffffffffffffffffffffffffffffffff163373ffffffffffffffffffffffffffffffffffffffff16146121bc57600080fd5b60006002541180156121d057506000600354115b80156121de57506000600454115b80156121ec57506000600554115b6121f557600080fd5b6001600081548092919060010191905055506040518061018001604052806001548152602001828152602001600081526020016000815260200160008152602001600081526020016000600581111561224a57fe5b8152602001600754815260200160085481526020016009548152602001600a548152602001600d54815250600e600060015481526020019081526020016000206000820151816000015560208201518160010190805190602001906122b09291906137d2565b5060408201518160020155606082015181600301556080820151816004015560a0820151816005015560c08201518160060160006101000a81548160ff021916908360058111156122fd57fe5b021790555060e082015181600701556101008201518160080155610120820151816009015561014082015181600a015561016082015181600b015590505050565b600b5481565b600080600154116123bd576040517f08c379a00000000000000000000000000000000000000000000000000000000081526004018080602001828103825260148152602001807f4e6f2050726f6475637420617661696c61626c6500000000000000000000000081525060200191505060405180910390fd5b600060058111156123ca57fe5b600e600084815260200190815260200160002060060160009054906101000a900460ff1660058111156123f957fe5b14156124095760075490506125f2565b6001600581111561241657fe5b600e600084815260200190815260200160002060060160009054906101000a900460ff16600581111561244557fe5b14156124555760085490506125f2565b6002600581111561246257fe5b600e600084815260200190815260200160002060060160009054906101000a900460ff16600581111561249157fe5b14156124a15760095490506125f2565b600360058111156124ae57fe5b600e600084815260200190815260200160002060060160009054906101000a900460ff1660058111156124dd57fe5b14156124ed57600a5490506125f2565b600460058111156124fa57fe5b600e600084815260200190815260200160002060060160009054906101000a900460ff16600581111561252957fe5b141561253957600b5490506125f2565b60058081111561254557fe5b600e600084815260200190815260200160002060060160009054906101000a900460ff16600581111561257457fe5b141561258457600c5490506125f2565b6040517f08c379a00000000000000000000000000000000000000000000000000000000081526004018080602001828103825260138152602001807f496e76616c6964206d65646963696e652049440000000000000000000000000081525060200191505060405180910390fd5b919050565b6000809054906101000a900473ffffffffffffffffffffffffffffffffffffffff1673ffffffffffffffffffffffffffffffffffffffff163373ffffffffffffffffffffffffffffffffffffffff161461265057600080fd5b60036000815480929190600101919050555060405180608001604052808473ffffffffffffffffffffffffffffffffffffffff16815260200160035481526020018381526020018281525060136000600354815260200190815260200160002060008201518160000160006101000a81548173ffffffffffffffffffffffffffffffffffffffff021916908373ffffffffffffffffffffffffffffffffffffffff16021790555060208201518160010155604082015181600201908051906020019061271d9291906137d2565b50606082015181600301908051906020019061273a9291906137d2565b50905050505050565b60075481565b60055481565b60106020528060005260406000206000915090508060000154908060010154908060020154905083565b80600e6000848152602001908152602001600020600901819055505050565b6000809054906101000a900473ffffffffffffffffffffffffffffffffffffffff1673ffffffffffffffffffffffffffffffffffffffff163373ffffffffffffffffffffffffffffffffffffffff16146127f157600080fd5b60056000815480929190600101919050555060405180608001604052808473ffffffffffffffffffffffffffffffffffffffff16815260200160055481526020018381526020018281525060156000600554815260200190815260200160002060008201518160000160006101000a81548173ffffffffffffffffffffffffffffffffffffffff021916908373ffffffffffffffffffffffffffffffffffffffff1602179055506020820151816001015560408201518160020190805190602001906128be9291906137d2565b5060608201518160030190805190602001906128db9291906137d2565b50905050505050565b600c5481565b6000600e6000838152602001908152602001600020600a01549050919050565b60008111801561291c57506001548111155b61292557600080fd5b6000612930336134ce565b90506000811161293f57600080fd5b600e600083815260200190815260200160002060050154811461296157600080fd5b6004600581111561296e57fe5b600e600084815260200190815260200160002060060160009054906101000a900460ff16600581111561299d57fe5b146129a757600080fd5b6005600e600084815260200190815260200160002060060160006101000a81548160ff021916908360058111156129da57fe5b02179055505050565b6000831180156129f557506001548311155b6129fe57600080fd5b6000612a0933613650565b905060008111612a1857600080fd5b60026005811115612a2557fe5b600e600086815260200190815260200160002060060160009054906101000a900460ff166005811115612a5457fe5b14612a5e57600080fd5b80600e6000868152602001908152602001600020600401819055506003600e600086815260200190815260200160002060060160006101000a81548160ff02191690836005811115612aac57fe5b021790555082601060008681526020019081526020016000206001018190555081601060008681526020019081526020016000206002018190555060016011600086815260200190815260200160002060010160006101000a81548160ff02191690836002811115612b1a57fe5b021790555050505050565b60065481565b60015481565b6000600e6000838152602001908152602001600020600701549050919050565b6000809054906101000a900473ffffffffffffffffffffffffffffffffffffffff1681565b80600e6000848152602001908152602001600020600801819055505050565b6000600e6000838152602001908152602001600020600901549050919050565b60136020528060005260406000206000915090508060000160009054906101000a900473ffffffffffffffffffffffffffffffffffffffff1690806001015490806002018054600181600116156101000203166002900480601f016020809104026020016040519081016040528092919081815260200182805460018160011615610100020316600290048015612c8d5780601f10612c6257610100808354040283529160200191612c8d565b820191906000526020600020905b815481529060010190602001808311612c7057829003601f168201915b505050505090806003018054600181600116156101000203166002900480601f016020809104026020016040519081016040528092919081815260200182805460018160011615610100020316600290048015612d2b5780601f10612d0057610100808354040283529160200191612d2b565b820191906000526020600020905b815481529060010190602001808311612d0e57829003601f168201915b5050505050905084565b60095481565b60025481565b80600e6000848152602001908152602001600020600701819055505050565b6060600060015411612dda576040517f08c379a00000000000000000000000000000000000000000000000000000000081526004018080602001828103825260148152602001807f4e6f2050726f6475637420617661696c61626c6500000000000000000000000081525060200191505060405180910390fd5b60006005811115612de757fe5b600e600084815260200190815260200160002060060160009054906101000a900460ff166005811115612e1657fe5b1415612e59576040518060400160405280600f81526020017f50726f64756374204f726465726564000000000000000000000000000000000081525090506130e6565b60016005811115612e6657fe5b600e600084815260200190815260200160002060060160009054906101000a900460ff166005811115612e9557fe5b1415612ed8576040518060400160405280601981526020017f526177204d6174657269616c20537570706c792053746167650000000000000081525090506130e6565b60026005811115612ee557fe5b600e600084815260200190815260200160002060060160009054906101000a900460ff166005811115612f1457fe5b1415612f57576040518060400160405280601381526020017f4d616e75666163747572696e672053746167650000000000000000000000000081525090506130e6565b60036005811115612f6457fe5b600e600084815260200190815260200160002060060160009054906101000a900460ff166005811115612f9357fe5b1415612fd6576040518060400160405280601281526020017f446973747269627574696f6e205374616765000000000000000000000000000081525090506130e6565b60046005811115612fe357fe5b600e600084815260200190815260200160002060060160009054906101000a900460ff16600581111561301257fe5b1415613055576040518060400160405280600c81526020017f52657461696c205374616765000000000000000000000000000000000000000081525090506130e6565b60058081111561306157fe5b600e600084815260200190815260200160002060060160009054906101000a900460ff16600581111561309057fe5b14156130d3576040518060400160405280600c81526020017f50726f6475637420536f6c64000000000000000000000000000000000000000081525090506130e6565b6040518060200160405280600081525090505b919050565b600e602052806000526040600020600091509050806000015490806001018054600181600116156101000203166002900480601f01602080910402602001604051908101604052809291908181526020018280546001816001161561010002031660029004801561319d5780601f106131725761010080835404028352916020019161319d565b820191906000526020600020905b81548152906001019060200180831161318057829003601f168201915b5050505050908060020154908060030154908060040154908060050154908060060160009054906101000a900460ff169080600701549080600801549080600901549080600a01549080600b015490508c565b60126020528060005260406000206000915090508060000160009054906101000a900473ffffffffffffffffffffffffffffffffffffffff1690806001015490806002018054600181600116156101000203166002900480601f0160208091040260200160405190810160405280929190818152602001828054600181600116156101000203166002900480156132c85780601f1061329d576101008083540402835291602001916132c8565b820191906000526020600020905b8154815290600101906020018083116132ab57829003601f168201915b505050505090806003018054600181600116156101000203166002900480601f0160208091040260200160405190810160405280929190818152602001828054600181600116156101000203166002900480156133665780601f1061333b57610100808354040283529160200191613366565b820191906000526020600020905b81548152906001019060200180831161334957829003601f168201915b5050505050905084565b60008411801561338257506001548411155b61338b57600080fd5b600061339633613711565b9050600081116133a557600080fd5b600060058111156133b257fe5b600e600087815260200190815260200160002060060160009054906101000a900460ff1660058111156133e157fe5b146133eb57600080fd5b80600e6000878152602001908152602001600020600201819055506001600e600087815260200190815260200160002060060160006101000a81548160ff0219169083600581111561343957fe5b021790555083600f60008781526020019081526020016000206001018190555082600f60008781526020019081526020016000206002018190555081600f60008781526020019081526020016000206003018190555060016011600087815260200190815260200160002060010160006101000a81548160ff021916908360028111156134c257fe5b02179055505050505050565b600080600554116134de57600080fd5b6000600190505b6005548111613584578273ffffffffffffffffffffffffffffffffffffffff166015600083815260200190815260200160002060000160009054906101000a900473ffffffffffffffffffffffffffffffffffffffff1673ffffffffffffffffffffffffffffffffffffffff16141561357757601560008281526020019081526020016000206001015491505061358a565b80806001019150506134e5565b50600090505b919050565b6000806003541161359f57600080fd5b6000600190505b6003548111613645578273ffffffffffffffffffffffffffffffffffffffff166013600083815260200190815260200160002060000160009054906101000a900473ffffffffffffffffffffffffffffffffffffffff1673ffffffffffffffffffffffffffffffffffffffff16141561363857601360008281526020019081526020016000206001015491505061364b565b80806001019150506135a6565b50600090505b919050565b6000806004541161366057600080fd5b6000600190505b6004548111613706578273ffffffffffffffffffffffffffffffffffffffff166014600083815260200190815260200160002060000160009054906101000a900473ffffffffffffffffffffffffffffffffffffffff1673ffffffffffffffffffffffffffffffffffffffff1614156136f957601460008281526020019081526020016000206001015491505061370c565b8080600101915050613667565b50600090505b919050565b6000806002541161372157600080fd5b6000600190505b60025481116137c7578273ffffffffffffffffffffffffffffffffffffffff166012600083815260200190815260200160002060000160009054906101000a900473ffffffffffffffffffffffffffffffffffffffff1673ffffffffffffffffffffffffffffffffffffffff1614156137ba5760126000828152602001908152602001600020600101549150506137cd565b8080600101915050613728565b50600090505b919050565b828054600181600116156101000203166002900490600052602060002090601f016020900481019282601f1061381357805160ff1916838001178555613841565b82800160010185558215613841579182015b82811115613840578251825591602001919060010190613825565b5b50905061384e9190613852565b5090565b61387491905b80821115613870576000816000905550600101613858565b5090565b9056fea265627a7a723158202f86d9781b795aad4dda903bea92014d98a87f19ec90c1c80881913bb3ce177364736f6c63430005100032",
  "source": "// SPDX-License-Identifier: MIT\r\npragma solidity >=0.4.22 <0.9.0;\r\n\r\ncontract SupplyChain {\r\n    //Smart Contract owner will be the person who deploys the contract only he can authorize various roles like retailer, Manufacturer,etc\r\n    address public Owner;\r\n\r\n    //note this constructor will be called when smart contract will be deployed on blockchain\r\n    constructor() public {\r\n    Owner = msg.sender;\r\n}\r\n\r\n    //modifier to make sure only the owner is using the function\r\n    modifier onlyByOwner() {\r\n        require(msg.sender == Owner);\r\n        _;\r\n    }\r\n\r\n\r\n    enum STAGE {\r\n        Init,\r\n        RawMaterialSupply,\r\n        Manufacture,\r\n        Distribution,\r\n        Retail,\r\n        sold\r\n    }\r\n\r\n\r\n\r\n    uint256 public medicineCtr = 0;\r\n    //Raw material supplier count\r\n    uint256 public rmsCtr = 0;\r\n    //Manufacturer count\r\n    uint256 public manCtr = 0;\r\n    //distributor count\r\n    uint256 public disCtr = 0;\r\n    //retailer count\r\n    uint256 public retCtr = 0;\r\n    uint256 public price=0;\r\n    uint256 public price1=10;\r\n    uint256 public price2=20;\r\n    uint256 public price3=30;\r\n    uint256 public price4=40;\r\n    uint256 public price5=50;\r\n    uint256 public price6=60;\r\n    uint256 public organicscore=0;\r\n\r\n\r\n    //To store information about the medicine\r\n    struct product {\r\n        uint256 id; //unique medicine id\r\n        string name; //name of the medicine\r\n        uint256 RMSid; //id of the Raw Material supplier for this particular medicine\r\n        uint256 MANid; //id of the Manufacturer for this particular medicine\r\n        uint256 DISid; //id of the distributor for this particular medicine\r\n        uint256 RETid; //id of the retailer for this particular medicine\r\n        STAGE stage; //current medicine stage\r\n        uint256 price1;\r\n        uint256 price2;\r\n        uint256 price3;\r\n        uint256 price4;\r\n        uint256 organicscore;\r\n    }\r\n\r\n    struct soil{\r\n        uint256 id;\r\n        uint256 NaturalFertilizer;\r\n        uint256 SyntheticFertilizer;\r\n        uint256 Organicertilizer;\r\n        uint256 phLevel;\r\n        uint256 waterquality;\r\n    }\r\n\r\n   \r\n   struct Storage{\r\n       uint256 id;\r\n       uint256 temp;\r\n       uint256 humidity;\r\n   }\r\n\r\n   struct Certify{\r\n       uint256 id;\r\n       Certification certify;\r\n   }\r\n\r\n   enum Certification{\r\n       Yes,\r\n       No,\r\n       Pending\r\n   }\r\n    \r\n\r\n    //To store all the medicines on the blockchain\r\n    function setPrice1(uint256 _medicineID, uint256 _price) public {\r\n    MedicineStock[_medicineID].price1 = _price;\r\n}\r\n    function setPrice2(uint256 _medicineID, uint256 _price) public {\r\n    MedicineStock[_medicineID].price2 = _price;\r\n}\r\n    function setPrice3(uint256 _medicineID, uint256 _price) public {\r\n    MedicineStock[_medicineID].price3 = _price;\r\n}\r\n    function setPrice4(uint256 _medicineID, uint256 _price) public {\r\n    MedicineStock[_medicineID].price4 = _price;\r\n}\r\n\r\nfunction getPrice1(uint256 _medicineID) public view returns (uint256) {\r\n    return MedicineStock[_medicineID].price1;\r\n}\r\n\r\nfunction getPrice2(uint256 _medicineID) public view returns (uint256) {\r\n    return MedicineStock[_medicineID].price2;\r\n}\r\nfunction getPrice3(uint256 _medicineID) public view returns (uint256) {\r\n    return MedicineStock[_medicineID].price3;\r\n}\r\nfunction getPrice4(uint256 _medicineID) public view returns (uint256) {\r\n    return MedicineStock[_medicineID].price4;\r\n}\r\n    mapping(uint256 => product) public MedicineStock;\r\n    mapping(uint256 => soil) public Soil;\r\n    mapping(uint256 => Storage) public StorageStock;\r\n    mapping(uint256 => Certify) public CertificationStock;\r\n    //To show status to client applications\r\n\r\n\r\n function showCertification(uint256 _medicineID)\r\n    public\r\n    view\r\n    returns (string memory)\r\n{\r\n    require(medicineCtr > 0, \"No Product available\");\r\n    \r\n    if (CertificationStock[_medicineID].certify == Certification.No)\r\n        return \"No\";\r\n    else if (CertificationStock[_medicineID].certify == Certification.Pending)\r\n        return \"Pending\";\r\n    else if (CertificationStock[_medicineID].certify == Certification.Yes)\r\n        return \"Yes\";\r\n    else\r\n        return \"\"; // add a default return statement to avoid the warning\r\n}\r\n\r\n function showStage(uint256 _medicineID)\r\n    public\r\n    view\r\n    returns (string memory)\r\n{\r\n    require(medicineCtr > 0, \"No Product available\");\r\n    \r\n    if (MedicineStock[_medicineID].stage == STAGE.Init)\r\n        return \"Product Ordered\";\r\n    else if (MedicineStock[_medicineID].stage == STAGE.RawMaterialSupply)\r\n        return \"Raw Material Supply Stage\";\r\n    else if (MedicineStock[_medicineID].stage == STAGE.Manufacture)\r\n        return \"Manufacturing Stage\";\r\n    else if (MedicineStock[_medicineID].stage == STAGE.Distribution)\r\n        return \"Distribution Stage\";\r\n    else if (MedicineStock[_medicineID].stage == STAGE.Retail)\r\n        return \"Retail Stage\";\r\n    else if (MedicineStock[_medicineID].stage == STAGE.sold)\r\n        return \"Product Sold\";\r\n    else\r\n        return \"\"; // add a default return statement to avoid the warning\r\n}\r\n\r\n\r\nfunction showPrice(uint256 _medicineID)\r\n    public\r\n    view\r\n    returns (uint256)\r\n{\r\n    require(medicineCtr > 0, \"No Product available\");\r\n    \r\n    if (MedicineStock[_medicineID].stage == STAGE.Init)\r\n        return price1;\r\n    else if (MedicineStock[_medicineID].stage == STAGE.RawMaterialSupply)\r\n        return price2;\r\n    else if (MedicineStock[_medicineID].stage == STAGE.Manufacture)\r\n        return price3;\r\n    else if (MedicineStock[_medicineID].stage == STAGE.Distribution)\r\n        return price4;\r\n    else if (MedicineStock[_medicineID].stage == STAGE.Retail)\r\n        return price5;\r\n    else if (MedicineStock[_medicineID].stage == STAGE.sold)\r\n        return price6;\r\n    else\r\n        revert(\"Invalid medicine ID\"); // add a default return statement to avoid the warning\r\n}\r\n\r\n    //To store information about raw material supplier\r\n    struct rawMaterialSupplier {\r\n        address addr;\r\n        uint256 id; //supplier id\r\n        string name; //Name of the raw material supplier\r\n        string place; //Place the raw material supplier is based in\r\n    }\r\n\r\n    //To store all the raw material suppliers on the blockchain\r\n    mapping(uint256 => rawMaterialSupplier) public RMS;\r\n\r\n    //To store information about manufacturer\r\n    struct manufacturer {\r\n        address addr;\r\n        uint256 id; //manufacturer id\r\n        string name; //Name of the manufacturer\r\n        string place; //Place the manufacturer is based in\r\n    }\r\n\r\n    //To store all the manufacturers on the blockchain\r\n    mapping(uint256 => manufacturer) public MAN;\r\n\r\n    //To store information about distributor\r\n    struct distributor {\r\n        address addr;\r\n        uint256 id; //distributor id\r\n        string name; //Name of the distributor\r\n        string place; //Place the distributor is based in\r\n    }\r\n\r\n    //To store all the distributors on the blockchain\r\n    mapping(uint256 => distributor) public DIS;\r\n\r\n    //To store information about retailer\r\n    struct retailer {\r\n        address addr;\r\n        uint256 id; //retailer id\r\n        string name; //Name of the retailer\r\n        string place; //Place the retailer is based in\r\n    }\r\n\r\n    //To store all the retailers on the blockchain\r\n    mapping(uint256 => retailer) public RET;\r\n\r\n    //To add raw material suppliers. Only contract owner can add a new raw material supplier\r\n    function addRMS(\r\n        address _address,\r\n        string memory _name,\r\n        string memory _place\r\n    ) public onlyByOwner() {\r\n        rmsCtr++;\r\n        RMS[rmsCtr] = rawMaterialSupplier(_address, rmsCtr, _name, _place);\r\n    }\r\n\r\n    //To add manufacturer. Only contract owner can add a new manufacturer\r\n    function addManufacturer(\r\n        address _address,\r\n        string memory _name,\r\n        string memory _place\r\n    ) public onlyByOwner() {\r\n        manCtr++;\r\n        MAN[manCtr] = manufacturer(_address, manCtr, _name, _place);\r\n    }\r\n\r\n    //To add distributor. Only contract owner can add a new distributor\r\n    function addDistributor(\r\n        address _address,\r\n        string memory _name,\r\n        string memory _place\r\n    ) public onlyByOwner() {\r\n        disCtr++;\r\n        DIS[disCtr] = distributor(_address, disCtr, _name, _place);\r\n    }\r\n\r\n    //To add retailer. Only contract owner can add a new retailer\r\n    function addRetailer(\r\n        address _address,\r\n        string memory _name,\r\n        string memory _place\r\n    ) public onlyByOwner() {\r\n        retCtr++;\r\n        RET[retCtr] = retailer(_address, retCtr, _name, _place);\r\n    }\r\n\r\n    //To supply raw materials from RMS supplier to the manufacturer\r\n    function RMSsupply(uint256 _medicineID,uint256 _nf,uint256 _sf,uint256 _of) public {\r\n        require(_medicineID > 0 && _medicineID <= medicineCtr);\r\n        uint256 _id = findRMS(msg.sender);\r\n        require(_id > 0);\r\n        require(MedicineStock[_medicineID].stage == STAGE.Init);\r\n        MedicineStock[_medicineID].RMSid = _id;\r\n        MedicineStock[_medicineID].stage = STAGE.RawMaterialSupply;\r\n        Soil[_medicineID].NaturalFertilizer= _nf;\r\n        Soil[_medicineID].SyntheticFertilizer= _sf;\r\n        Soil[_medicineID].Organicertilizer= _of;\r\n        CertificationStock[_medicineID].certify = Certification.No;\r\n    }\r\n\r\n    //To check if RMS is available in the blockchain\r\n    function findRMS(address _address) private view returns (uint256) {\r\n        require(rmsCtr > 0);\r\n        for (uint256 i = 1; i <= rmsCtr; i++) {\r\n            if (RMS[i].addr == _address) return RMS[i].id;\r\n        }\r\n        return 0;\r\n    }\r\n\r\n    //To manufacture medicine\r\n    function Manufacturing(uint256 _medicineID,uint256 _ph,uint256 _wq) public {\r\n        require(_medicineID > 0 && _medicineID <= medicineCtr);\r\n        uint256 _id = findMAN(msg.sender);\r\n        require(_id > 0);\r\n        require(MedicineStock[_medicineID].stage == STAGE.RawMaterialSupply);\r\n        MedicineStock[_medicineID].MANid = _id;\r\n        MedicineStock[_medicineID].stage = STAGE.Manufacture;\r\n        Soil[_medicineID].phLevel= _ph;\r\n        Soil[_medicineID].waterquality= _wq;\r\n        CertificationStock[_medicineID].certify = Certification.No;\r\n    }\r\n\r\n    //To check if Manufacturer is available in the blockchain\r\n    function findMAN(address _address) private view returns (uint256) {\r\n        require(manCtr > 0);\r\n        for (uint256 i = 1; i <= manCtr; i++) {\r\n            if (MAN[i].addr == _address) return MAN[i].id;\r\n        }\r\n        return 0;\r\n    }\r\n\r\n    //To supply medicines from Manufacturer to distributor\r\n    function Distribute(uint256 _medicineID,uint256 _temp,uint256 _hum) public {\r\n        require(_medicineID > 0 && _medicineID <= medicineCtr);\r\n        uint256 _id = findDIS(msg.sender);\r\n        require(_id > 0);\r\n        require(MedicineStock[_medicineID].stage == STAGE.Manufacture);\r\n        MedicineStock[_medicineID].DISid = _id;\r\n        MedicineStock[_medicineID].stage = STAGE.Distribution;\r\n        StorageStock[_medicineID].temp= _temp;\r\n        StorageStock[_medicineID].humidity= _hum;\r\n        CertificationStock[_medicineID].certify = Certification.No;\r\n    }\r\n\r\n    //To check if distributor is available in the blockchain\r\n    function findDIS(address _address) private view returns (uint256) {\r\n        require(disCtr > 0);\r\n        for (uint256 i = 1; i <= disCtr; i++) {\r\n            if (DIS[i].addr == _address) return DIS[i].id;\r\n        }\r\n        return 0;\r\n    }\r\n\r\n    //To supply medicines from distributor to retailer\r\n    function Retail(uint256 _medicineID) public {\r\n        require(_medicineID > 0 && _medicineID <= medicineCtr);\r\n        uint256 _id = findRET(msg.sender);\r\n        require(_id > 0);\r\n        require(MedicineStock[_medicineID].stage == STAGE.Distribution);\r\n        MedicineStock[_medicineID].RETid = _id;\r\n        MedicineStock[_medicineID].stage = STAGE.Retail;\r\n        CertificationStock[_medicineID].certify = Certification.Yes;\r\n    }\r\n\r\n    //To check if retailer is available in the blockchain\r\n    function findRET(address _address) private view returns (uint256) {\r\n        require(retCtr > 0);\r\n        for (uint256 i = 1; i <= retCtr; i++) {\r\n            if (RET[i].addr == _address) return RET[i].id;\r\n        }\r\n        return 0;\r\n    }\r\n\r\n    //To sell medicines from retailer to consumer\r\n    function sold(uint256 _medicineID) public {\r\n        require(_medicineID > 0 && _medicineID <= medicineCtr);\r\n        uint256 _id = findRET(msg.sender);\r\n        require(_id > 0);\r\n        require(_id == MedicineStock[_medicineID].RETid); //Only correct retailer can mark medicine as sold\r\n        require(MedicineStock[_medicineID].stage == STAGE.Retail);\r\n        MedicineStock[_medicineID].stage = STAGE.sold;\r\n    }\r\n\r\n    // To add new medicines to the stock\r\n    function addMedicine(string memory _name)\r\n        public\r\n        onlyByOwner()\r\n    {\r\n        require((rmsCtr > 0) && (manCtr > 0) && (disCtr > 0) && (retCtr > 0));\r\n        medicineCtr++;\r\n        MedicineStock[medicineCtr] = product(\r\n            medicineCtr,\r\n            _name,\r\n            0,\r\n            0,\r\n            0,\r\n            0,\r\n            STAGE.Init,price1,price2,price3,price4,organicscore);\r\n    }\r\n}",
  "sourcePath": "C:\\Users\\ROSHAN GEORGE\\Agroledger\\contracts\\SupplyChain.sol",
  "compiler": {
    "name": "solc",
    "version": "0.5.16+commit.9c3226ce.Emscripten.clang"
  },
  "schemaVersion": "3.4.15",
  "updatedAt": "2023-08-25T15:03:37.697Z",
  "networkType": "ethereum",
  "devdoc": {
    "methods": {}
  },
  "userdoc": {
    "methods": {}
  }
}