{
  "contractName": "SupplyChain",
  "abi": [
    {
      "inputs": [],
      "payable": false,
      "stateMutability": "nonpayable",
      "type": "constructor"
    },
    {
      "constant": true,
      "inputs": [
        {
          "internalType": "uint256",
          "name": "",
          "type": "uint256"
        }
      ],
      "name": "DIS",
      "outputs": [
        {
          "internalType": "address",
          "name": "addr",
          "type": "address"
        },
        {
          "internalType": "uint256",
          "name": "id",
          "type": "uint256"
        },
        {
          "internalType": "string",
          "name": "name",
          "type": "string"
        },
        {
          "internalType": "string",
          "name": "place",
          "type": "string"
        }
      ],
      "payable": false,
      "stateMutability": "view",
      "type": "function"
    },
    {
      "constant": true,
      "inputs": [
        {
          "internalType": "uint256",
          "name": "",
          "type": "uint256"
        }
      ],
      "name": "MAN",
      "outputs": [
        {
          "internalType": "address",
          "name": "addr",
          "type": "address"
        },
        {
          "internalType": "uint256",
          "name": "id",
          "type": "uint256"
        },
        {
          "internalType": "string",
          "name": "name",
          "type": "string"
        },
        {
          "internalType": "string",
          "name": "place",
          "type": "string"
        }
      ],
      "payable": false,
      "stateMutability": "view",
      "type": "function"
    },
    {
      "constant": true,
      "inputs": [
        {
          "internalType": "uint256",
          "name": "",
          "type": "uint256"
        }
      ],
      "name": "MedicineStock",
      "outputs": [
        {
          "internalType": "uint256",
          "name": "id",
          "type": "uint256"
        },
        {
          "internalType": "string",
          "name": "name",
          "type": "string"
        },
        {
          "internalType": "string",
          "name": "description",
          "type": "string"
        },
        {
          "internalType": "uint256",
          "name": "RMSid",
          "type": "uint256"
        },
        {
          "internalType": "uint256",
          "name": "MANid",
          "type": "uint256"
        },
        {
          "internalType": "uint256",
          "name": "DISid",
          "type": "uint256"
        },
        {
          "internalType": "uint256",
          "name": "RETid",
          "type": "uint256"
        },
        {
          "internalType": "enum SupplyChain.STAGE",
          "name": "stage",
          "type": "uint8"
        },
        {
          "internalType": "uint256",
          "name": "price1",
          "type": "uint256"
        },
        {
          "internalType": "uint256",
          "name": "price2",
          "type": "uint256"
        },
        {
          "internalType": "uint256",
          "name": "price3",
          "type": "uint256"
        },
        {
          "internalType": "uint256",
          "name": "price4",
          "type": "uint256"
        }
      ],
      "payable": false,
      "stateMutability": "view",
      "type": "function"
    },
    {
      "constant": true,
      "inputs": [],
      "name": "Owner",
      "outputs": [
        {
          "internalType": "address",
          "name": "",
          "type": "address"
        }
      ],
      "payable": false,
      "stateMutability": "view",
      "type": "function"
    },
    {
      "constant": true,
      "inputs": [
        {
          "internalType": "uint256",
          "name": "",
          "type": "uint256"
        }
      ],
      "name": "RET",
      "outputs": [
        {
          "internalType": "address",
          "name": "addr",
          "type": "address"
        },
        {
          "internalType": "uint256",
          "name": "id",
          "type": "uint256"
        },
        {
          "internalType": "string",
          "name": "name",
          "type": "string"
        },
        {
          "internalType": "string",
          "name": "place",
          "type": "string"
        }
      ],
      "payable": false,
      "stateMutability": "view",
      "type": "function"
    },
    {
      "constant": true,
      "inputs": [
        {
          "internalType": "uint256",
          "name": "",
          "type": "uint256"
        }
      ],
      "name": "RMS",
      "outputs": [
        {
          "internalType": "address",
          "name": "addr",
          "type": "address"
        },
        {
          "internalType": "uint256",
          "name": "id",
          "type": "uint256"
        },
        {
          "internalType": "string",
          "name": "name",
          "type": "string"
        },
        {
          "internalType": "string",
          "name": "place",
          "type": "string"
        }
      ],
      "payable": false,
      "stateMutability": "view",
      "type": "function"
    },
    {
      "constant": true,
      "inputs": [],
      "name": "disCtr",
      "outputs": [
        {
          "internalType": "uint256",
          "name": "",
          "type": "uint256"
        }
      ],
      "payable": false,
      "stateMutability": "view",
      "type": "function"
    },
    {
      "constant": true,
      "inputs": [],
      "name": "manCtr",
      "outputs": [
        {
          "internalType": "uint256",
          "name": "",
          "type": "uint256"
        }
      ],
      "payable": false,
      "stateMutability": "view",
      "type": "function"
    },
    {
      "constant": true,
      "inputs": [],
      "name": "medicineCtr",
      "outputs": [
        {
          "internalType": "uint256",
          "name": "",
          "type": "uint256"
        }
      ],
      "payable": false,
      "stateMutability": "view",
      "type": "function"
    },
    {
      "constant": true,
      "inputs": [],
      "name": "price",
      "outputs": [
        {
          "internalType": "uint256",
          "name": "",
          "type": "uint256"
        }
      ],
      "payable": false,
      "stateMutability": "view",
      "type": "function"
    },
    {
      "constant": true,
      "inputs": [],
      "name": "price1",
      "outputs": [
        {
          "internalType": "uint256",
          "name": "",
          "type": "uint256"
        }
      ],
      "payable": false,
      "stateMutability": "view",
      "type": "function"
    },
    {
      "constant": true,
      "inputs": [],
      "name": "price2",
      "outputs": [
        {
          "internalType": "uint256",
          "name": "",
          "type": "uint256"
        }
      ],
      "payable": false,
      "stateMutability": "view",
      "type": "function"
    },
    {
      "constant": true,
      "inputs": [],
      "name": "price3",
      "outputs": [
        {
          "internalType": "uint256",
          "name": "",
          "type": "uint256"
        }
      ],
      "payable": false,
      "stateMutability": "view",
      "type": "function"
    },
    {
      "constant": true,
      "inputs": [],
      "name": "price4",
      "outputs": [
        {
          "internalType": "uint256",
          "name": "",
          "type": "uint256"
        }
      ],
      "payable": false,
      "stateMutability": "view",
      "type": "function"
    },
    {
      "constant": true,
      "inputs": [],
      "name": "price5",
      "outputs": [
        {
          "internalType": "uint256",
          "name": "",
          "type": "uint256"
        }
      ],
      "payable": false,
      "stateMutability": "view",
      "type": "function"
    },
    {
      "constant": true,
      "inputs": [],
      "name": "price6",
      "outputs": [
        {
          "internalType": "uint256",
          "name": "",
          "type": "uint256"
        }
      ],
      "payable": false,
      "stateMutability": "view",
      "type": "function"
    },
    {
      "constant": true,
      "inputs": [],
      "name": "retCtr",
      "outputs": [
        {
          "internalType": "uint256",
          "name": "",
          "type": "uint256"
        }
      ],
      "payable": false,
      "stateMutability": "view",
      "type": "function"
    },
    {
      "constant": true,
      "inputs": [],
      "name": "rmsCtr",
      "outputs": [
        {
          "internalType": "uint256",
          "name": "",
          "type": "uint256"
        }
      ],
      "payable": false,
      "stateMutability": "view",
      "type": "function"
    },
    {
      "constant": false,
      "inputs": [
        {
          "internalType": "uint256",
          "name": "_medicineID",
          "type": "uint256"
        },
        {
          "internalType": "uint256",
          "name": "_price",
          "type": "uint256"
        }
      ],
      "name": "setPrice1",
      "outputs": [],
      "payable": false,
      "stateMutability": "nonpayable",
      "type": "function"
    },
    {
      "constant": false,
      "inputs": [
        {
          "internalType": "uint256",
          "name": "_medicineID",
          "type": "uint256"
        },
        {
          "internalType": "uint256",
          "name": "_price",
          "type": "uint256"
        }
      ],
      "name": "setPrice2",
      "outputs": [],
      "payable": false,
      "stateMutability": "nonpayable",
      "type": "function"
    },
    {
      "constant": false,
      "inputs": [
        {
          "internalType": "uint256",
          "name": "_medicineID",
          "type": "uint256"
        },
        {
          "internalType": "uint256",
          "name": "_price",
          "type": "uint256"
        }
      ],
      "name": "setPrice3",
      "outputs": [],
      "payable": false,
      "stateMutability": "nonpayable",
      "type": "function"
    },
    {
      "constant": false,
      "inputs": [
        {
          "internalType": "uint256",
          "name": "_medicineID",
          "type": "uint256"
        },
        {
          "internalType": "uint256",
          "name": "_price",
          "type": "uint256"
        }
      ],
      "name": "setPrice4",
      "outputs": [],
      "payable": false,
      "stateMutability": "nonpayable",
      "type": "function"
    },
    {
      "constant": true,
      "inputs": [
        {
          "internalType": "uint256",
          "name": "_medicineID",
          "type": "uint256"
        }
      ],
      "name": "getPrice1",
      "outputs": [
        {
          "internalType": "uint256",
          "name": "",
          "type": "uint256"
        }
      ],
      "payable": false,
      "stateMutability": "view",
      "type": "function"
    },
    {
      "constant": true,
      "inputs": [
        {
          "internalType": "uint256",
          "name": "_medicineID",
          "type": "uint256"
        }
      ],
      "name": "getPrice2",
      "outputs": [
        {
          "internalType": "uint256",
          "name": "",
          "type": "uint256"
        }
      ],
      "payable": false,
      "stateMutability": "view",
      "type": "function"
    },
    {
      "constant": true,
      "inputs": [
        {
          "internalType": "uint256",
          "name": "_medicineID",
          "type": "uint256"
        }
      ],
      "name": "getPrice3",
      "outputs": [
        {
          "internalType": "uint256",
          "name": "",
          "type": "uint256"
        }
      ],
      "payable": false,
      "stateMutability": "view",
      "type": "function"
    },
    {
      "constant": true,
      "inputs": [
        {
          "internalType": "uint256",
          "name": "_medicineID",
          "type": "uint256"
        }
      ],
      "name": "getPrice4",
      "outputs": [
        {
          "internalType": "uint256",
          "name": "",
          "type": "uint256"
        }
      ],
      "payable": false,
      "stateMutability": "view",
      "type": "function"
    },
    {
      "constant": true,
      "inputs": [
        {
          "internalType": "uint256",
          "name": "_medicineID",
          "type": "uint256"
        }
      ],
      "name": "showStage",
      "outputs": [
        {
          "internalType": "string",
          "name": "",
          "type": "string"
        }
      ],
      "payable": false,
      "stateMutability": "view",
      "type": "function"
    },
    {
      "constant": true,
      "inputs": [
        {
          "internalType": "uint256",
          "name": "_medicineID",
          "type": "uint256"
        }
      ],
      "name": "showPrice",
      "outputs": [
        {
          "internalType": "uint256",
          "name": "",
          "type": "uint256"
        }
      ],
      "payable": false,
      "stateMutability": "view",
      "type": "function"
    },
    {
      "constant": false,
      "inputs": [
        {
          "internalType": "address",
          "name": "_address",
          "type": "address"
        },
        {
          "internalType": "string",
          "name": "_name",
          "type": "string"
        },
        {
          "internalType": "string",
          "name": "_place",
          "type": "string"
        }
      ],
      "name": "addRMS",
      "outputs": [],
      "payable": false,
      "stateMutability": "nonpayable",
      "type": "function"
    },
    {
      "constant": false,
      "inputs": [
        {
          "internalType": "address",
          "name": "_address",
          "type": "address"
        },
        {
          "internalType": "string",
          "name": "_name",
          "type": "string"
        },
        {
          "internalType": "string",
          "name": "_place",
          "type": "string"
        }
      ],
      "name": "addManufacturer",
      "outputs": [],
      "payable": false,
      "stateMutability": "nonpayable",
      "type": "function"
    },
    {
      "constant": false,
      "inputs": [
        {
          "internalType": "address",
          "name": "_address",
          "type": "address"
        },
        {
          "internalType": "string",
          "name": "_name",
          "type": "string"
        },
        {
          "internalType": "string",
          "name": "_place",
          "type": "string"
        }
      ],
      "name": "addDistributor",
      "outputs": [],
      "payable": false,
      "stateMutability": "nonpayable",
      "type": "function"
    },
    {
      "constant": false,
      "inputs": [
        {
          "internalType": "address",
          "name": "_address",
          "type": "address"
        },
        {
          "internalType": "string",
          "name": "_name",
          "type": "string"
        },
        {
          "internalType": "string",
          "name": "_place",
          "type": "string"
        }
      ],
      "name": "addRetailer",
      "outputs": [],
      "payable": false,
      "stateMutability": "nonpayable",
      "type": "function"
    },
    {
      "constant": false,
      "inputs": [
        {
          "internalType": "uint256",
          "name": "_medicineID",
          "type": "uint256"
        }
      ],
      "name": "RMSsupply",
      "outputs": [],
      "payable": false,
      "stateMutability": "nonpayable",
      "type": "function"
    },
    {
      "constant": false,
      "inputs": [
        {
          "internalType": "uint256",
          "name": "_medicineID",
          "type": "uint256"
        }
      ],
      "name": "Manufacturing",
      "outputs": [],
      "payable": false,
      "stateMutability": "nonpayable",
      "type": "function"
    },
    {
      "constant": false,
      "inputs": [
        {
          "internalType": "uint256",
          "name": "_medicineID",
          "type": "uint256"
        }
      ],
      "name": "Distribute",
      "outputs": [],
      "payable": false,
      "stateMutability": "nonpayable",
      "type": "function"
    },
    {
      "constant": false,
      "inputs": [
        {
          "internalType": "uint256",
          "name": "_medicineID",
          "type": "uint256"
        }
      ],
      "name": "Retail",
      "outputs": [],
      "payable": false,
      "stateMutability": "nonpayable",
      "type": "function"
    },
    {
      "constant": false,
      "inputs": [
        {
          "internalType": "uint256",
          "name": "_medicineID",
          "type": "uint256"
        }
      ],
      "name": "sold",
      "outputs": [],
      "payable": false,
      "stateMutability": "nonpayable",
      "type": "function"
    },
    {
      "constant": false,
      "inputs": [
        {
          "internalType": "string",
          "name": "_name",
          "type": "string"
        },
        {
          "internalType": "string",
          "name": "_description",
          "type": "string"
        }
      ],
      "name": "addMedicine",
      "outputs": [],
      "payable": false,
      "stateMutability": "nonpayable",
      "type": "function"
    }
  ],
  "bytecode": "0x6080604052600060015560006002556000600355600060045560006005556000600655600a6007556014600855601e6009556028600a556032600b55603c600c5534801561004c57600080fd5b50336000806101000a81548173ffffffffffffffffffffffffffffffffffffffff021916908373ffffffffffffffffffffffffffffffffffffffff1602179055506132648061009c6000396000f3fe608060405234801561001057600080fd5b50600436106102325760003560e01c8063865b554811610130578063b4a99a4e116100b8578063dd2863981161007c578063dd286398146111a4578063e0a46791146111c2578063e101a2e0146111fa578063eb1a06b5146112a1578063eef5cb401461140857610232565b8063b4a99a4e14610f75578063b5588a0014610fbf578063ba8d2de414610ff7578063cc40306914611039578063d778c9111461118657610232565b80639c03facb116100ff5780639c03facb14610e9b578063a035b1fe14610ec9578063a48d335a14610ee7578063a95f29d914610f15578063b2dca3d514610f3357610232565b8063865b554814610cbb57806386c1827514610cd95780638f4183cc14610d075780639014cd4914610e5957610232565b80634def474a116101be5780636a992c9f116101825780636a992c9f146109635780636caf25ce14610ad55780637e43d94d14610af357806385604e3114610b11578063857ddb0414610b4957610232565b80634def474a14610750578063579c05df1461077e57806359bf286f146107b6578063641e90de1461090357806364bb057f1461092157610232565b80632b0187ac116102055780632b0187ac146104275780632b70b08d146105745780632bdb2e6b146106e65780633d753a1c14610704578063438e9c4d1461073257610232565b80631852fed214610237578063273786841461027957806327a3181d146102975780632a4af440146102b5575b600080fd5b6102636004803603602081101561024d57600080fd5b8101908080359060200190929190505050611555565b6040518082815260200191505060405180910390f35b610281611575565b6040518082815260200191505060405180910390f35b61029f61157b565b6040518082815260200191505060405180910390f35b610425600480360360608110156102cb57600080fd5b81019080803573ffffffffffffffffffffffffffffffffffffffff1690602001909291908035906020019064010000000081111561030857600080fd5b82018360208201111561031a57600080fd5b8035906020019184600183028401116401000000008311171561033c57600080fd5b91908080601f016020809104026020016040519081016040528093929190818152602001838380828437600081840152601f19601f8201169050808301925050505050505091929192908035906020019064010000000081111561039f57600080fd5b8201836020820111156103b157600080fd5b803590602001918460018302840111640100000000831117156103d357600080fd5b91908080601f016020809104026020016040519081016040528093929190818152602001838380828437600081840152601f19601f820116905080830192505050505050509192919290505050611581565b005b6104536004803603602081101561043d57600080fd5b81019080803590602001909291905050506116cd565b604051808573ffffffffffffffffffffffffffffffffffffffff1673ffffffffffffffffffffffffffffffffffffffff1681526020018481526020018060200180602001838103835285818151815260200191508051906020019080838360005b838110156104cf5780820151818401526020810190506104b4565b50505050905090810190601f1680156104fc5780820380516001836020036101000a031916815260200191505b50838103825284818151815260200191508051906020019080838360005b8381101561053557808201518184015260208101905061051a565b50505050905090810190601f1680156105625780820380516001836020036101000a031916815260200191505b50965050505050505060405180910390f35b6106e46004803603606081101561058a57600080fd5b81019080803573ffffffffffffffffffffffffffffffffffffffff169060200190929190803590602001906401000000008111156105c757600080fd5b8201836020820111156105d957600080fd5b803590602001918460018302840111640100000000831117156105fb57600080fd5b91908080601f016020809104026020016040519081016040528093929190818152602001838380828437600081840152601f19601f8201169050808301925050505050505091929192908035906020019064010000000081111561065e57600080fd5b82018360208201111561067057600080fd5b8035906020019184600183028401116401000000008311171561069257600080fd5b91908080601f016020809104026020016040519081016040528093929190818152602001838380828437600081840152601f19601f82011690508083019250505050505050919291929050505061184d565b005b6106ee611999565b6040518082815260200191505060405180910390f35b6107306004803603602081101561071a57600080fd5b810190808035906020019092919050505061199f565b005b61073a611a71565b6040518082815260200191505060405180910390f35b61077c6004803603602081101561076657600080fd5b8101908080359060200190929190505050611a77565b005b6107b46004803603604081101561079457600080fd5b810190808035906020019092919080359060200190929190505050611b49565b005b6107e2600480360360208110156107cc57600080fd5b8101908080359060200190929190505050611b68565b604051808573ffffffffffffffffffffffffffffffffffffffff1673ffffffffffffffffffffffffffffffffffffffff1681526020018481526020018060200180602001838103835285818151815260200191508051906020019080838360005b8381101561085e578082015181840152602081019050610843565b50505050905090810190601f16801561088b5780820380516001836020036101000a031916815260200191505b50838103825284818151815260200191508051906020019080838360005b838110156108c45780820151818401526020810190506108a9565b50505050905090810190601f1680156108f15780820380516001836020036101000a031916815260200191505b50965050505050505060405180910390f35b61090b611ce8565b6040518082815260200191505060405180910390f35b61094d6004803603602081101561093757600080fd5b8101908080359060200190929190505050611cee565b6040518082815260200191505060405180910390f35b610ad36004803603606081101561097957600080fd5b81019080803573ffffffffffffffffffffffffffffffffffffffff169060200190929190803590602001906401000000008111156109b657600080fd5b8201836020820111156109c857600080fd5b803590602001918460018302840111640100000000831117156109ea57600080fd5b91908080601f016020809104026020016040519081016040528093929190818152602001838380828437600081840152601f19601f82011690508083019250505050505050919291929080359060200190640100000000811115610a4d57600080fd5b820183602082011115610a5f57600080fd5b80359060200191846001830284011164010000000083111715610a8157600080fd5b91908080601f016020809104026020016040519081016040528093929190818152602001838380828437600081840152601f19601f820116905080830192505050505050509192919290505050611ecb565b005b610add612017565b6040518082815260200191505060405180910390f35b610afb61201d565b6040518082815260200191505060405180910390f35b610b4760048036036040811015610b2757600080fd5b810190808035906020019092919080359060200190929190505050612023565b005b610cb960048036036060811015610b5f57600080fd5b81019080803573ffffffffffffffffffffffffffffffffffffffff16906020019092919080359060200190640100000000811115610b9c57600080fd5b820183602082011115610bae57600080fd5b80359060200191846001830284011164010000000083111715610bd057600080fd5b91908080601f016020809104026020016040519081016040528093929190818152602001838380828437600081840152601f19601f82011690508083019250505050505050919291929080359060200190640100000000811115610c3357600080fd5b820183602082011115610c4557600080fd5b80359060200191846001830284011164010000000083111715610c6757600080fd5b91908080601f016020809104026020016040519081016040528093929190818152602001838380828437600081840152601f19601f820116905080830192505050505050509192919290505050612042565b005b610cc361218e565b6040518082815260200191505060405180910390f35b610d0560048036036020811015610cef57600080fd5b8101908080359060200190929190505050612194565b005b610e5760048036036040811015610d1d57600080fd5b8101908080359060200190640100000000811115610d3a57600080fd5b820183602082011115610d4c57600080fd5b80359060200191846001830284011164010000000083111715610d6e57600080fd5b91908080601f016020809104026020016040519081016040528093929190818152602001838380828437600081840152601f19601f82011690508083019250505050505050919291929080359060200190640100000000811115610dd157600080fd5b820183602082011115610de357600080fd5b80359060200191846001830284011164010000000083111715610e0557600080fd5b91908080601f016020809104026020016040519081016040528093929190818152602001838380828437600081840152601f19601f820116905080830192505050505050509192919290505050612266565b005b610e8560048036036020811015610e6f57600080fd5b8101908080359060200190929190505050612453565b6040518082815260200191505060405180910390f35b610ec760048036036020811015610eb157600080fd5b8101908080359060200190929190505050612473565b005b610ed161254c565b6040518082815260200191505060405180910390f35b610f1360048036036020811015610efd57600080fd5b8101908080359060200190929190505050612552565b005b610f1d612624565b6040518082815260200191505060405180910390f35b610f5f60048036036020811015610f4957600080fd5b810190808035906020019092919050505061262a565b6040518082815260200191505060405180910390f35b610f7d61264a565b604051808273ffffffffffffffffffffffffffffffffffffffff1673ffffffffffffffffffffffffffffffffffffffff16815260200191505060405180910390f35b610ff560048036036040811015610fd557600080fd5b81019080803590602001909291908035906020019092919050505061266f565b005b6110236004803603602081101561100d57600080fd5b810190808035906020019092919050505061268e565b6040518082815260200191505060405180910390f35b6110656004803603602081101561104f57600080fd5b81019080803590602001909291905050506126ae565b604051808573ffffffffffffffffffffffffffffffffffffffff1673ffffffffffffffffffffffffffffffffffffffff1681526020018481526020018060200180602001838103835285818151815260200191508051906020019080838360005b838110156110e15780820151818401526020810190506110c6565b50505050905090810190601f16801561110e5780820380516001836020036101000a031916815260200191505b50838103825284818151815260200191508051906020019080838360005b8381101561114757808201518184015260208101905061112c565b50505050905090810190601f1680156111745780820380516001836020036101000a031916815260200191505b50965050505050505060405180910390f35b61118e61282e565b6040518082815260200191505060405180910390f35b6111ac612834565b6040518082815260200191505060405180910390f35b6111f8600480360360408110156111d857600080fd5b81019080803590602001909291908035906020019092919050505061283a565b005b6112266004803603602081101561121057600080fd5b8101908080359060200190929190505050612859565b6040518080602001828103825283818151815260200191508051906020019080838360005b8381101561126657808201518184015260208101905061124b565b50505050905090810190601f1680156112935780820380516001836020036101000a031916815260200191505b509250505060405180910390f35b6112cd600480360360208110156112b757600080fd5b8101908080359060200190929190505050612b69565b604051808d815260200180602001806020018c81526020018b81526020018a815260200189815260200188600581111561130357fe5b60ff16815260200187815260200186815260200185815260200184815260200183810383528e818151815260200191508051906020019080838360005b8381101561135b578082015181840152602081019050611340565b50505050905090810190601f1680156113885780820380516001836020036101000a031916815260200191505b5083810382528d818151815260200191508051906020019080838360005b838110156113c15780820151818401526020810190506113a6565b50505050905090810190601f1680156113ee5780820380516001836020036101000a031916815260200191505b509e50505050505050505050505050505060405180910390f35b6114346004803603602081101561141e57600080fd5b8101908080359060200190929190505050612d06565b604051808573ffffffffffffffffffffffffffffffffffffffff1673ffffffffffffffffffffffffffffffffffffffff1681526020018481526020018060200180602001838103835285818151815260200191508051906020019080838360005b838110156114b0578082015181840152602081019050611495565b50505050905090810190601f1680156114dd5780820380516001836020036101000a031916815260200191505b50838103825284818151815260200191508051906020019080838360005b838110156115165780820151818401526020810190506114fb565b50505050905090810190601f1680156115435780820380516001836020036101000a031916815260200191505b50965050505050505060405180910390f35b6000600d6000838152602001908152602001600020600901549050919050565b600a5481565b60085481565b6000809054906101000a900473ffffffffffffffffffffffffffffffffffffffff1673ffffffffffffffffffffffffffffffffffffffff163373ffffffffffffffffffffffffffffffffffffffff16146115da57600080fd5b60046000815480929190600101919050555060405180608001604052808473ffffffffffffffffffffffffffffffffffffffff16815260200160045481526020018381526020018281525060106000600454815260200190815260200160002060008201518160000160006101000a81548173ffffffffffffffffffffffffffffffffffffffff021916908373ffffffffffffffffffffffffffffffffffffffff1602179055506020820151816001015560408201518160020190805190602001906116a792919061318a565b5060608201518160030190805190602001906116c492919061318a565b50905050505050565b60106020528060005260406000206000915090508060000160009054906101000a900473ffffffffffffffffffffffffffffffffffffffff1690806001015490806002018054600181600116156101000203166002900480601f0160208091040260200160405190810160405280929190818152602001828054600181600116156101000203166002900480156117a55780601f1061177a576101008083540402835291602001916117a5565b820191906000526020600020905b81548152906001019060200180831161178857829003601f168201915b505050505090806003018054600181600116156101000203166002900480601f0160208091040260200160405190810160405280929190818152602001828054600181600116156101000203166002900480156118435780601f1061181857610100808354040283529160200191611843565b820191906000526020600020905b81548152906001019060200180831161182657829003601f168201915b5050505050905084565b6000809054906101000a900473ffffffffffffffffffffffffffffffffffffffff1673ffffffffffffffffffffffffffffffffffffffff163373ffffffffffffffffffffffffffffffffffffffff16146118a657600080fd5b60026000815480929190600101919050555060405180608001604052808473ffffffffffffffffffffffffffffffffffffffff168152602001600254815260200183815260200182815250600e6000600254815260200190815260200160002060008201518160000160006101000a81548173ffffffffffffffffffffffffffffffffffffffff021916908373ffffffffffffffffffffffffffffffffffffffff16021790555060208201518160010155604082015181600201908051906020019061197392919061318a565b50606082015181600301908051906020019061199092919061318a565b50905050505050565b60045481565b6000811180156119b157506001548111155b6119ba57600080fd5b60006119c533612e86565b9050600081116119d457600080fd5b600360058111156119e157fe5b600d600084815260200190815260200160002060070160009054906101000a900460ff166005811115611a1057fe5b14611a1a57600080fd5b80600d6000848152602001908152602001600020600601819055506004600d600084815260200190815260200160002060070160006101000a81548160ff02191690836005811115611a6857fe5b02179055505050565b60035481565b600081118015611a8957506001548111155b611a9257600080fd5b6000611a9d33612f47565b905060008111611aac57600080fd5b60026005811115611ab957fe5b600d600084815260200190815260200160002060070160009054906101000a900460ff166005811115611ae857fe5b14611af257600080fd5b80600d6000848152602001908152602001600020600501819055506003600d600084815260200190815260200160002060070160006101000a81548160ff02191690836005811115611b4057fe5b02179055505050565b80600d6000848152602001908152602001600020600b01819055505050565b60116020528060005260406000206000915090508060000160009054906101000a900473ffffffffffffffffffffffffffffffffffffffff1690806001015490806002018054600181600116156101000203166002900480601f016020809104026020016040519081016040528092919081815260200182805460018160011615610100020316600290048015611c405780601f10611c1557610100808354040283529160200191611c40565b820191906000526020600020905b815481529060010190602001808311611c2357829003601f168201915b505050505090806003018054600181600116156101000203166002900480601f016020809104026020016040519081016040528092919081815260200182805460018160011615610100020316600290048015611cde5780601f10611cb357610100808354040283529160200191611cde565b820191906000526020600020905b815481529060010190602001808311611cc157829003601f168201915b5050505050905084565b600b5481565b60008060015411611cfe57600080fd5b60006005811115611d0b57fe5b600d600084815260200190815260200160002060070160009054906101000a900460ff166005811115611d3a57fe5b1415611d4a576007549050611ec6565b60016005811115611d5757fe5b600d600084815260200190815260200160002060070160009054906101000a900460ff166005811115611d8657fe5b1415611d96576008549050611ec6565b60026005811115611da357fe5b600d600084815260200190815260200160002060070160009054906101000a900460ff166005811115611dd257fe5b1415611de2576009549050611ec6565b60036005811115611def57fe5b600d600084815260200190815260200160002060070160009054906101000a900460ff166005811115611e1e57fe5b1415611e2e57600a549050611ec6565b60046005811115611e3b57fe5b600d600084815260200190815260200160002060070160009054906101000a900460ff166005811115611e6a57fe5b1415611e7a57600b549050611ec6565b600580811115611e8657fe5b600d600084815260200190815260200160002060070160009054906101000a900460ff166005811115611eb557fe5b1415611ec557600c549050611ec6565b5b919050565b6000809054906101000a900473ffffffffffffffffffffffffffffffffffffffff1673ffffffffffffffffffffffffffffffffffffffff163373ffffffffffffffffffffffffffffffffffffffff1614611f2457600080fd5b60036000815480929190600101919050555060405180608001604052808473ffffffffffffffffffffffffffffffffffffffff168152602001600354815260200183815260200182815250600f6000600354815260200190815260200160002060008201518160000160006101000a81548173ffffffffffffffffffffffffffffffffffffffff021916908373ffffffffffffffffffffffffffffffffffffffff160217905550602082015181600101556040820151816002019080519060200190611ff192919061318a565b50606082015181600301908051906020019061200e92919061318a565b50905050505050565b60075481565b60055481565b80600d6000848152602001908152602001600020600a01819055505050565b6000809054906101000a900473ffffffffffffffffffffffffffffffffffffffff1673ffffffffffffffffffffffffffffffffffffffff163373ffffffffffffffffffffffffffffffffffffffff161461209b57600080fd5b60056000815480929190600101919050555060405180608001604052808473ffffffffffffffffffffffffffffffffffffffff16815260200160055481526020018381526020018281525060116000600554815260200190815260200160002060008201518160000160006101000a81548173ffffffffffffffffffffffffffffffffffffffff021916908373ffffffffffffffffffffffffffffffffffffffff16021790555060208201518160010155604082015181600201908051906020019061216892919061318a565b50606082015181600301908051906020019061218592919061318a565b50905050505050565b600c5481565b6000811180156121a657506001548111155b6121af57600080fd5b60006121ba33613008565b9050600081116121c957600080fd5b600060058111156121d657fe5b600d600084815260200190815260200160002060070160009054906101000a900460ff16600581111561220557fe5b1461220f57600080fd5b80600d6000848152602001908152602001600020600301819055506001600d600084815260200190815260200160002060070160006101000a81548160ff0219169083600581111561225d57fe5b02179055505050565b6000809054906101000a900473ffffffffffffffffffffffffffffffffffffffff1673ffffffffffffffffffffffffffffffffffffffff163373ffffffffffffffffffffffffffffffffffffffff16146122bf57600080fd5b60006002541180156122d357506000600354115b80156122e157506000600454115b80156122ef57506000600554115b6122f857600080fd5b6001600081548092919060010191905055506040518061018001604052806001548152602001838152602001828152602001600081526020016000815260200160008152602001600081526020016000600581111561235357fe5b8152602001600754815260200160085481526020016009548152602001600a54815250600d600060015481526020019081526020016000206000820151816000015560208201518160010190805190602001906123b192919061318a565b5060408201518160020190805190602001906123ce92919061318a565b50606082015181600301556080820151816004015560a0820151816005015560c0820151816006015560e08201518160070160006101000a81548160ff0219169083600581111561241b57fe5b02179055506101008201518160080155610120820151816009015561014082015181600a015561016082015181600b01559050505050565b6000600d6000838152602001908152602001600020600b01549050919050565b60008111801561248557506001548111155b61248e57600080fd5b600061249933612e86565b9050600081116124a857600080fd5b600d60008381526020019081526020016000206006015481146124ca57600080fd5b600460058111156124d757fe5b600d600084815260200190815260200160002060070160009054906101000a900460ff16600581111561250657fe5b1461251057600080fd5b6005600d600084815260200190815260200160002060070160006101000a81548160ff0219169083600581111561254357fe5b02179055505050565b60065481565b60008111801561256457506001548111155b61256d57600080fd5b6000612578336130c9565b90506000811161258757600080fd5b6001600581111561259457fe5b600d600084815260200190815260200160002060070160009054906101000a900460ff1660058111156125c357fe5b146125cd57600080fd5b80600d6000848152602001908152602001600020600401819055506002600d600084815260200190815260200160002060070160006101000a81548160ff0219169083600581111561261b57fe5b02179055505050565b60015481565b6000600d6000838152602001908152602001600020600801549050919050565b6000809054906101000a900473ffffffffffffffffffffffffffffffffffffffff1681565b80600d6000848152602001908152602001600020600901819055505050565b6000600d6000838152602001908152602001600020600a01549050919050565b600f6020528060005260406000206000915090508060000160009054906101000a900473ffffffffffffffffffffffffffffffffffffffff1690806001015490806002018054600181600116156101000203166002900480601f0160208091040260200160405190810160405280929190818152602001828054600181600116156101000203166002900480156127865780601f1061275b57610100808354040283529160200191612786565b820191906000526020600020905b81548152906001019060200180831161276957829003601f168201915b505050505090806003018054600181600116156101000203166002900480601f0160208091040260200160405190810160405280929190818152602001828054600181600116156101000203166002900480156128245780601f106127f957610100808354040283529160200191612824565b820191906000526020600020905b81548152906001019060200180831161280757829003601f168201915b5050505050905084565b60095481565b60025481565b80600d6000848152602001908152602001600020600801819055505050565b606060006001541161286a57600080fd5b6000600581111561287757fe5b600d600084815260200190815260200160002060070160009054906101000a900460ff1660058111156128a657fe5b14156128e9576040518060400160405280600f81526020017f50726f64756374204f72646572656400000000000000000000000000000000008152509050612b64565b600160058111156128f657fe5b600d600084815260200190815260200160002060070160009054906101000a900460ff16600581111561292557fe5b1415612968576040518060400160405280601981526020017f526177204d6174657269616c20537570706c79205374616765000000000000008152509050612b64565b6002600581111561297557fe5b600d600084815260200190815260200160002060070160009054906101000a900460ff1660058111156129a457fe5b14156129e7576040518060400160405280601381526020017f4d616e75666163747572696e67205374616765000000000000000000000000008152509050612b64565b600360058111156129f457fe5b600d600084815260200190815260200160002060070160009054906101000a900460ff166005811115612a2357fe5b1415612a66576040518060400160405280601281526020017f446973747269627574696f6e20537461676500000000000000000000000000008152509050612b64565b60046005811115612a7357fe5b600d600084815260200190815260200160002060070160009054906101000a900460ff166005811115612aa257fe5b1415612ae5576040518060400160405280600c81526020017f52657461696c20537461676500000000000000000000000000000000000000008152509050612b64565b600580811115612af157fe5b600d600084815260200190815260200160002060070160009054906101000a900460ff166005811115612b2057fe5b1415612b63576040518060400160405280600c81526020017f50726f6475637420536f6c6400000000000000000000000000000000000000008152509050612b64565b5b919050565b600d602052806000526040600020600091509050806000015490806001018054600181600116156101000203166002900480601f016020809104026020016040519081016040528092919081815260200182805460018160011615610100020316600290048015612c1b5780601f10612bf057610100808354040283529160200191612c1b565b820191906000526020600020905b815481529060010190602001808311612bfe57829003601f168201915b505050505090806002018054600181600116156101000203166002900480601f016020809104026020016040519081016040528092919081815260200182805460018160011615610100020316600290048015612cb95780601f10612c8e57610100808354040283529160200191612cb9565b820191906000526020600020905b815481529060010190602001808311612c9c57829003601f168201915b5050505050908060030154908060040154908060050154908060060154908060070160009054906101000a900460ff169080600801549080600901549080600a01549080600b015490508c565b600e6020528060005260406000206000915090508060000160009054906101000a900473ffffffffffffffffffffffffffffffffffffffff1690806001015490806002018054600181600116156101000203166002900480601f016020809104026020016040519081016040528092919081815260200182805460018160011615610100020316600290048015612dde5780601f10612db357610100808354040283529160200191612dde565b820191906000526020600020905b815481529060010190602001808311612dc157829003601f168201915b505050505090806003018054600181600116156101000203166002900480601f016020809104026020016040519081016040528092919081815260200182805460018160011615610100020316600290048015612e7c5780601f10612e5157610100808354040283529160200191612e7c565b820191906000526020600020905b815481529060010190602001808311612e5f57829003601f168201915b5050505050905084565b60008060055411612e9657600080fd5b6000600190505b6005548111612f3c578273ffffffffffffffffffffffffffffffffffffffff166011600083815260200190815260200160002060000160009054906101000a900473ffffffffffffffffffffffffffffffffffffffff1673ffffffffffffffffffffffffffffffffffffffff161415612f2f576011600082815260200190815260200160002060010154915050612f42565b8080600101915050612e9d565b50600090505b919050565b60008060045411612f5757600080fd5b6000600190505b6004548111612ffd578273ffffffffffffffffffffffffffffffffffffffff166010600083815260200190815260200160002060000160009054906101000a900473ffffffffffffffffffffffffffffffffffffffff1673ffffffffffffffffffffffffffffffffffffffff161415612ff0576010600082815260200190815260200160002060010154915050613003565b8080600101915050612f5e565b50600090505b919050565b6000806002541161301857600080fd5b6000600190505b60025481116130be578273ffffffffffffffffffffffffffffffffffffffff16600e600083815260200190815260200160002060000160009054906101000a900473ffffffffffffffffffffffffffffffffffffffff1673ffffffffffffffffffffffffffffffffffffffff1614156130b157600e6000828152602001908152602001600020600101549150506130c4565b808060010191505061301f565b50600090505b919050565b600080600354116130d957600080fd5b6000600190505b600354811161317f578273ffffffffffffffffffffffffffffffffffffffff16600f600083815260200190815260200160002060000160009054906101000a900473ffffffffffffffffffffffffffffffffffffffff1673ffffffffffffffffffffffffffffffffffffffff16141561317257600f600082815260200190815260200160002060010154915050613185565b80806001019150506130e0565b50600090505b919050565b828054600181600116156101000203166002900490600052602060002090601f016020900481019282601f106131cb57805160ff19168380011785556131f9565b828001600101855582156131f9579182015b828111156131f85782518255916020019190600101906131dd565b5b509050613206919061320a565b5090565b61322c91905b80821115613228576000816000905550600101613210565b5090565b9056fea265627a7a723158207114ff49e53d2cbf1b4103399534692d0631f8f527a883c4c2dd834bcd22b40d64736f6c63430005100032",
  "source": "// SPDX-License-Identifier: MIT\npragma solidity >=0.4.22 <0.9.0;\n\ncontract SupplyChain {\n    //Smart Contract owner will be the person who deploys the contract only he can authorize various roles like retailer, Manufacturer,etc\n    address public Owner;\n\n    //note this constructor will be called when smart contract will be deployed on blockchain\n    constructor() public {\n        Owner = msg.sender;\n    }\n\n    //modifier to make sure only the owner is using the function\n    modifier onlyByOwner() {\n        require(msg.sender == Owner);\n        _;\n    }\n\n\n    enum STAGE {\n        Init,\n        RawMaterialSupply,\n        Manufacture,\n        Distribution,\n        Retail,\n        sold\n    }\n\n\n    uint256 public medicineCtr = 0;\n    //Raw material supplier count\n    uint256 public rmsCtr = 0;\n    //Manufacturer count\n    uint256 public manCtr = 0;\n    //distributor count\n    uint256 public disCtr = 0;\n    //retailer count\n    uint256 public retCtr = 0;\n    uint256 public price=0;\n    uint256 public price1=10;\n    uint256 public price2=20;\n    uint256 public price3=30;\n    uint256 public price4=40;\n    uint256 public price5=50;\n    uint256 public price6=60;\n\n\n    //To store information about the medicine\n    struct medicine {\n        uint256 id; //unique medicine id\n        string name; //name of the medicine\n        string description; //about medicine\n        uint256 RMSid; //id of the Raw Material supplier for this particular medicine\n        uint256 MANid; //id of the Manufacturer for this particular medicine\n        uint256 DISid; //id of the distributor for this particular medicine\n        uint256 RETid; //id of the retailer for this particular medicine\n        STAGE stage; //current medicine stage\n        uint256 price1;\n        uint256 price2;\n        uint256 price3;\n        uint256 price4;\n    }\n\n    \n\n    //To store all the medicines on the blockchain\n    function setPrice1(uint256 _medicineID, uint256 _price) public {\n    MedicineStock[_medicineID].price1 = _price;\n}\n    function setPrice2(uint256 _medicineID, uint256 _price) public {\n    MedicineStock[_medicineID].price2 = _price;\n}\n    function setPrice3(uint256 _medicineID, uint256 _price) public {\n    MedicineStock[_medicineID].price3 = _price;\n}\n    function setPrice4(uint256 _medicineID, uint256 _price) public {\n    MedicineStock[_medicineID].price4 = _price;\n}\n\nfunction getPrice1(uint256 _medicineID) public view returns (uint256) {\n    return MedicineStock[_medicineID].price1;\n}\n\nfunction getPrice2(uint256 _medicineID) public view returns (uint256) {\n    return MedicineStock[_medicineID].price2;\n}\nfunction getPrice3(uint256 _medicineID) public view returns (uint256) {\n    return MedicineStock[_medicineID].price3;\n}\nfunction getPrice4(uint256 _medicineID) public view returns (uint256) {\n    return MedicineStock[_medicineID].price4;\n}\n    mapping(uint256 => medicine) public MedicineStock;\n\n    //To show status to client applications\n\n    function showStage(uint256 _medicineID)\n        public\n        view\n        returns (string memory)\n    {\n        require(medicineCtr > 0);\n        if (MedicineStock[_medicineID].stage == STAGE.Init)\n            return \"Product Ordered\";\n        else if (MedicineStock[_medicineID].stage == STAGE.RawMaterialSupply)\n            return \"Raw Material Supply Stage\";\n        else if (MedicineStock[_medicineID].stage == STAGE.Manufacture)\n            return \"Manufacturing Stage\";\n        else if (MedicineStock[_medicineID].stage == STAGE.Distribution)\n            return \"Distribution Stage\";\n        else if (MedicineStock[_medicineID].stage == STAGE.Retail)\n            return \"Retail Stage\";\n        else if (MedicineStock[_medicineID].stage == STAGE.sold)\n            return \"Product Sold\";\n    }\n\n        function showPrice(uint256 _medicineID)\n        public\n        view\n        returns (uint256)\n    {\n        require(medicineCtr > 0);\n        if (MedicineStock[_medicineID].stage == STAGE.Init)\n            return (price1);\n        else if (MedicineStock[_medicineID].stage == STAGE.RawMaterialSupply)\n            return (price2);\n        else if (MedicineStock[_medicineID].stage == STAGE.Manufacture)\n            return (price3);\n        else if (MedicineStock[_medicineID].stage == STAGE.Distribution)\n            return (price4);\n        else if (MedicineStock[_medicineID].stage == STAGE.Retail)\n            return (price5);\n        else if (MedicineStock[_medicineID].stage == STAGE.sold)\n            return (price6);\n    }\n\n    //To store information about raw material supplier\n    struct rawMaterialSupplier {\n        address addr;\n        uint256 id; //supplier id\n        string name; //Name of the raw material supplier\n        string place; //Place the raw material supplier is based in\n    }\n\n    //To store all the raw material suppliers on the blockchain\n    mapping(uint256 => rawMaterialSupplier) public RMS;\n\n    //To store information about manufacturer\n    struct manufacturer {\n        address addr;\n        uint256 id; //manufacturer id\n        string name; //Name of the manufacturer\n        string place; //Place the manufacturer is based in\n    }\n\n    //To store all the manufacturers on the blockchain\n    mapping(uint256 => manufacturer) public MAN;\n\n    //To store information about distributor\n    struct distributor {\n        address addr;\n        uint256 id; //distributor id\n        string name; //Name of the distributor\n        string place; //Place the distributor is based in\n    }\n\n    //To store all the distributors on the blockchain\n    mapping(uint256 => distributor) public DIS;\n\n    //To store information about retailer\n    struct retailer {\n        address addr;\n        uint256 id; //retailer id\n        string name; //Name of the retailer\n        string place; //Place the retailer is based in\n    }\n\n    //To store all the retailers on the blockchain\n    mapping(uint256 => retailer) public RET;\n\n    //To add raw material suppliers. Only contract owner can add a new raw material supplier\n    function addRMS(\n        address _address,\n        string memory _name,\n        string memory _place\n    ) public onlyByOwner() {\n        rmsCtr++;\n        RMS[rmsCtr] = rawMaterialSupplier(_address, rmsCtr, _name, _place);\n    }\n\n    //To add manufacturer. Only contract owner can add a new manufacturer\n    function addManufacturer(\n        address _address,\n        string memory _name,\n        string memory _place\n    ) public onlyByOwner() {\n        manCtr++;\n        MAN[manCtr] = manufacturer(_address, manCtr, _name, _place);\n    }\n\n    //To add distributor. Only contract owner can add a new distributor\n    function addDistributor(\n        address _address,\n        string memory _name,\n        string memory _place\n    ) public onlyByOwner() {\n        disCtr++;\n        DIS[disCtr] = distributor(_address, disCtr, _name, _place);\n    }\n\n    //To add retailer. Only contract owner can add a new retailer\n    function addRetailer(\n        address _address,\n        string memory _name,\n        string memory _place\n    ) public onlyByOwner() {\n        retCtr++;\n        RET[retCtr] = retailer(_address, retCtr, _name, _place);\n    }\n\n    //To supply raw materials from RMS supplier to the manufacturer\n    function RMSsupply(uint256 _medicineID) public {\n        require(_medicineID > 0 && _medicineID <= medicineCtr);\n        uint256 _id = findRMS(msg.sender);\n        require(_id > 0);\n        require(MedicineStock[_medicineID].stage == STAGE.Init);\n        MedicineStock[_medicineID].RMSid = _id;\n        MedicineStock[_medicineID].stage = STAGE.RawMaterialSupply;\n    }\n\n    //To check if RMS is available in the blockchain\n    function findRMS(address _address) private view returns (uint256) {\n        require(rmsCtr > 0);\n        for (uint256 i = 1; i <= rmsCtr; i++) {\n            if (RMS[i].addr == _address) return RMS[i].id;\n        }\n        return 0;\n    }\n\n    //To manufacture medicine\n    function Manufacturing(uint256 _medicineID) public {\n        require(_medicineID > 0 && _medicineID <= medicineCtr);\n        uint256 _id = findMAN(msg.sender);\n        require(_id > 0);\n        require(MedicineStock[_medicineID].stage == STAGE.RawMaterialSupply);\n        MedicineStock[_medicineID].MANid = _id;\n        MedicineStock[_medicineID].stage = STAGE.Manufacture;\n    }\n\n    //To check if Manufacturer is available in the blockchain\n    function findMAN(address _address) private view returns (uint256) {\n        require(manCtr > 0);\n        for (uint256 i = 1; i <= manCtr; i++) {\n            if (MAN[i].addr == _address) return MAN[i].id;\n        }\n        return 0;\n    }\n\n    //To supply medicines from Manufacturer to distributor\n    function Distribute(uint256 _medicineID) public {\n        require(_medicineID > 0 && _medicineID <= medicineCtr);\n        uint256 _id = findDIS(msg.sender);\n        require(_id > 0);\n        require(MedicineStock[_medicineID].stage == STAGE.Manufacture);\n        MedicineStock[_medicineID].DISid = _id;\n        MedicineStock[_medicineID].stage = STAGE.Distribution;\n    }\n\n    //To check if distributor is available in the blockchain\n    function findDIS(address _address) private view returns (uint256) {\n        require(disCtr > 0);\n        for (uint256 i = 1; i <= disCtr; i++) {\n            if (DIS[i].addr == _address) return DIS[i].id;\n        }\n        return 0;\n    }\n\n    //To supply medicines from distributor to retailer\n    function Retail(uint256 _medicineID) public {\n        require(_medicineID > 0 && _medicineID <= medicineCtr);\n        uint256 _id = findRET(msg.sender);\n        require(_id > 0);\n        require(MedicineStock[_medicineID].stage == STAGE.Distribution);\n        MedicineStock[_medicineID].RETid = _id;\n        MedicineStock[_medicineID].stage = STAGE.Retail;\n    }\n\n    //To check if retailer is available in the blockchain\n    function findRET(address _address) private view returns (uint256) {\n        require(retCtr > 0);\n        for (uint256 i = 1; i <= retCtr; i++) {\n            if (RET[i].addr == _address) return RET[i].id;\n        }\n        return 0;\n    }\n\n    //To sell medicines from retailer to consumer\n    function sold(uint256 _medicineID) public {\n        require(_medicineID > 0 && _medicineID <= medicineCtr);\n        uint256 _id = findRET(msg.sender);\n        require(_id > 0);\n        require(_id == MedicineStock[_medicineID].RETid); //Only correct retailer can mark medicine as sold\n        require(MedicineStock[_medicineID].stage == STAGE.Retail);\n        MedicineStock[_medicineID].stage = STAGE.sold;\n    }\n\n    // To add new medicines to the stock\n    function addMedicine(string memory _name, string memory _description)\n        public\n        onlyByOwner()\n    {\n        require((rmsCtr > 0) && (manCtr > 0) && (disCtr > 0) && (retCtr > 0));\n        medicineCtr++;\n        MedicineStock[medicineCtr] = medicine(\n            medicineCtr,\n            _name,\n            _description,\n            0,\n            0,\n            0,\n            0,\n            STAGE.Init,price1,price2,price3,price4);\n    }\n}",
  "sourcePath": "C:\\Users\\User\\Documents\\supply-chain-truffle-react-main\\contracts\\SupplyChain.sol",
  "compiler": {
    "name": "solc",
    "version": "0.5.16+commit.9c3226ce.Emscripten.clang"
  },
  "schemaVersion": "3.4.10",
  "updatedAt": "2023-05-07T20:18:59.637Z",
  "networkType": "ethereum",
  "devdoc": {
    "methods": {}
  },
  "userdoc": {
    "methods": {}
  }
}